{"abi":[{"type":"constructor","inputs":[{"name":"_poolContract","type":"address","internalType":"address"}],"stateMutability":"nonpayable"},{"type":"function","name":"COMMITMENT_LOCK_PERIOD","inputs":[],"outputs":[{"name":"","type":"uint256","internalType":"uint256"}],"stateMutability":"view"},{"type":"function","name":"MAX_CLAIM_AMOUNT","inputs":[],"outputs":[{"name":"","type":"uint256","internalType":"uint256"}],"stateMutability":"view"},{"type":"function","name":"MAX_COMMITMENT_PERCENTAGE","inputs":[],"outputs":[{"name":"","type":"uint256","internalType":"uint256"}],"stateMutability":"view"},{"type":"function","name":"MIN_COMMITMENT_PERCENTAGE","inputs":[],"outputs":[{"name":"","type":"uint256","internalType":"uint256"}],"stateMutability":"view"},{"type":"function","name":"MIN_DISTRIBUTION_INTERVAL","inputs":[],"outputs":[{"name":"","type":"uint256","internalType":"uint256"}],"stateMutability":"view"},{"type":"function","name":"PRECISION","inputs":[],"outputs":[{"name":"","type":"uint256","internalType":"uint256"}],"stateMutability":"view"},{"type":"function","name":"admin","inputs":[],"outputs":[{"name":"","type":"address","internalType":"address"}],"stateMutability":"view"},{"type":"function","name":"changeAdmin","inputs":[{"name":"newAdmin","type":"address","internalType":"address"}],"outputs":[],"stateMutability":"nonpayable"},{"type":"function","name":"claimDividends","inputs":[{"name":"member","type":"address","internalType":"address"},{"name":"amount","type":"suint256","internalType":"suint256"}],"outputs":[],"stateMutability":"nonpayable"},{"type":"function","name":"distributeDividends","inputs":[{"name":"member","type":"address","internalType":"address"},{"name":"amount","type":"suint256","internalType":"suint256"},{"name":"memberCount","type":"uint256","internalType":"uint256"}],"outputs":[],"stateMutability":"nonpayable"},{"type":"function","name":"getCommitmentPercentage","inputs":[],"outputs":[{"name":"","type":"uint256","internalType":"uint256"}],"stateMutability":"view"},{"type":"function","name":"getLastCommitmentUpdate","inputs":[],"outputs":[{"name":"","type":"uint256","internalType":"uint256"}],"stateMutability":"view"},{"type":"function","name":"getPendingDividends","inputs":[],"outputs":[{"name":"","type":"uint256","internalType":"uint256"}],"stateMutability":"view"},{"type":"function","name":"getTotalDividendsReceived","inputs":[],"outputs":[{"name":"","type":"uint256","internalType":"uint256"}],"stateMutability":"view"},{"type":"function","name":"pause","inputs":[],"outputs":[],"stateMutability":"nonpayable"},{"type":"function","name":"paused","inputs":[],"outputs":[{"name":"","type":"bool","internalType":"bool"}],"stateMutability":"view"},{"type":"function","name":"pool","inputs":[],"outputs":[{"name":"","type":"address","internalType":"contract ISuccessPool"}],"stateMutability":"view"},{"type":"function","name":"poolContract","inputs":[],"outputs":[{"name":"","type":"address","internalType":"address"}],"stateMutability":"view"},{"type":"function","name":"unpause","inputs":[],"outputs":[],"stateMutability":"nonpayable"},{"type":"function","name":"updateCommitment","inputs":[{"name":"member","type":"address","internalType":"address"},{"name":"percentage","type":"suint256","internalType":"suint256"}],"outputs":[],"stateMutability":"nonpayable"},{"type":"event","name":"AdminChanged","inputs":[{"name":"newAdmin","type":"address","indexed":true,"internalType":"address"}],"anonymous":false},{"type":"event","name":"CommitmentUpdated","inputs":[{"name":"member","type":"address","indexed":true,"internalType":"address"},{"name":"timestamp","type":"uint256","indexed":false,"internalType":"uint256"}],"anonymous":false},{"type":"event","name":"DividendsClaimed","inputs":[{"name":"member","type":"address","indexed":true,"internalType":"address"},{"name":"timestamp","type":"uint256","indexed":false,"internalType":"uint256"}],"anonymous":false},{"type":"event","name":"DividendsDistributed","inputs":[{"name":"memberCount","type":"uint256","indexed":false,"internalType":"uint256"},{"name":"timestamp","type":"uint256","indexed":false,"internalType":"uint256"}],"anonymous":false},{"type":"event","name":"EmergencyPaused","inputs":[],"anonymous":false},{"type":"event","name":"EmergencyUnpaused","inputs":[],"anonymous":false},{"type":"error","name":"ClaimAmountTooLarge","inputs":[]},{"type":"error","name":"ContractPaused","inputs":[]},{"type":"error","name":"DistributionTooFrequent","inputs":[]},{"type":"error","name":"PrecisionError","inputs":[]},{"type":"error","name":"ReentrancyGuard","inputs":[]},{"type":"error","name":"Unauthorized","inputs":[]}],"bytecode":{"object":"0x60c06040526007805460ff60a81b1916600160a81b179055348015610022575f5ffd5b50604051610f81380380610f81833981016040819052610041916100c8565b6001600160a01b03811661009b5760405162461bcd60e51b815260206004820152601460248201527f496e76616c696420706f6f6c2061646472657373000000000000000000000000604482015260640160405180910390fd5b6001600160a01b031660a081905260805260078054610100600160a81b03191633610100021790556100f5565b5f602082840312156100d8575f5ffd5b81516001600160a01b03811681146100ee575f5ffd5b9392505050565b60805160a051610e4f6101325f395f818161014b0152610b2501525f81816101ff01528181610474015281816107b30152610a350152610e4f5ff3fe608060405234801561000f575f5ffd5b5060043610610127575f3560e01c80638f283970116100a9578063e362b4f71161006e578063e362b4f714610271578063e3b3b13714610284578063e67046161461028e578063ef1d8018146102a1578063f851a440146102b5575f5ffd5b80638f28397014610221578063aaf5eb6814610234578063b3b17d0114610243578063c28eb12e14610256578063daab23da14610269575f5ffd5b8063466620c2116100ef578063466620c2146101b75780635c975abb146101c157806362f803b4146101de5780638456cb59146101f257806388d52ef7146101fa575f5ffd5b806301718f971461012b57806316f0115b146101465780632e3e1ee514610185578063300cc67d146101995780633f4ba83a146101ad575b5f5ffd5b610133600a81565b6040519081526020015b60405180910390f35b61016d7f000000000000000000000000000000000000000000000000000000000000000081565b6040516001600160a01b03909116815260200161013d565b335f908152600260205260409020b0610133565b335f908152600160205260409020b0610133565b6101b56102cd565b005b6101336201518081565b6007546101ce9060ff1681565b604051901515815260200161013d565b335f90815260036020526040902054610133565b6101b5610330565b61016d7f000000000000000000000000000000000000000000000000000000000000000081565b6101b561022f366004610cc2565b610396565b610133670de0b6b3a764000081565b6101b5610251366004610ce2565b610469565b6101b5610264366004610d12565b6107a8565b610133600181565b6101336b033b2e3c9fd0803ce800000081565b61013362278d0081565b6101b561029c366004610d12565b610a2a565b335f908152602081905260409020b0610133565b60075461016d9061010090046001600160a01b031681565b60075461010090046001600160a01b031633146102fc576040516282b42960e81b815260040160405180910390fd5b6007805460ff191690556040517f15de7ad89d29fd1c6d2e6b1e878453569b4080edf34e0105faaa3bd52f018530905f90a1565b60075461010090046001600160a01b0316331461035f576040516282b42960e81b815260040160405180910390fd5b6007805460ff191660011790556040517f4cb3183d0bf66f9634b15cfc3539fdddc96c2c9324848af89b56586a6739fec4905f90a1565b60075461010090046001600160a01b031633146103c5576040516282b42960e81b815260040160405180910390fd5b6001600160a01b0381166104185760405162461bcd60e51b8152602060048201526015602482015274496e76616c69642061646d696e206164647265737360581b60448201526064015b60405180910390fd5b60078054610100600160a81b0319166101006001600160a01b038416908102919091179091556040517f7ce7ec0b50378fb6c0186ffb5f48325f6593fcb4ca4386f21861af3129188f5c905f90a250565b336001600160a01b037f000000000000000000000000000000000000000000000000000000000000000016146104b15760405162461bcd60e51b815260040161040f90610d3a565b600754600160a81b900460ff166104db576040516345f5ce8b60e11b815260040160405180910390fd5b6007805460ff60a81b19811690915560ff161561050b5760405163ab35696f60e01b815260040160405180910390fd5b5f811161055a5760405162461bcd60e51b815260206004820152601b60248201527f4e6f206d656d6265727320746f206469737472696275746520746f0000000000604482015260640161040f565b5f6005b0116105ab5760405162461bcd60e51b815260206004820152601960248201527f4e6f20636f6d6d69746d656e7473207265676973746572656400000000000000604482015260640161040f565b6001600160a01b0383165f908152600260205260409020b061060a5760405162461bcd60e51b815260206004820152601860248201527713595b58995c881a185cc81b9bc818dbdb5b5a5d1b595b9d60421b604482015260640161040f565b6001600160a01b0383165f90815260046020526040902054610630906201518090610d7a565b421015610650576040516337eb439f60e11b815260040160405180910390fd5b6001600160a01b0383165f908152600260205260409020b0670de0b6b3a764000090839061067e9082610d93565b905061068a8282610d93565b90506005b08161069a9190610daa565b90506106a68282610daa565b9050838111156106f85760405162461bcd60e51b815260206004820152601760248201527f53686172652063616c63756c6174696f6e206572726f72000000000000000000604482015260640161040f565b8360065f8282b06107099190610d7a565b9091b150506001600160a01b0385165f90815260208190526040812080b0839290610735908490610d7a565b9091b150506001600160a01b0385165f9081526004602090815260409182902042908190558251868152918201527fac4c4b96e3856cb20170077826b7701a887bdaf8d743f369b438133249a1f82f910160405180910390a150506007805460ff60a81b1916600160a81b179055505050565b336001600160a01b037f000000000000000000000000000000000000000000000000000000000000000016146107f05760405162461bcd60e51b815260040161040f90610d3a565b600754600160a81b900460ff1661081a576040516345f5ce8b60e11b815260040160405180910390fd5b6007805460ff60a81b19811690915560ff161561084a5760405163ab35696f60e01b815260040160405180910390fd5b5f81116108915760405162461bcd60e51b81526020600482015260156024820152744e6f206469766964656e647320746f20636c61696d60581b604482015260640161040f565b6001600160a01b0382165f908152600260205260409020b06108f05760405162461bcd60e51b815260206004820152601860248201527713595b58995c881a185cc81b9bc818dbdb5b5a5d1b595b9d60421b604482015260640161040f565b6b033b2e3c9fd0803ce800000081111561091d57604051632097ca5b60e01b815260040160405180910390fd5b6001600160a01b0382165f908152602081905260409020b081111561097d5760405162461bcd60e51b8152602060048201526016602482015275496e73756666696369656e74206469766964656e647360501b604482015260640161040f565b6001600160a01b0382165f90815260208190526040812080b08392906109a4908490610dc9565b9091b150506001600160a01b0382165f90815260016020526040812080b08392906109d0908490610d7a565b9091b150506040514281526001600160a01b038316907f16b8533c95f66ab8c192c98ddcf5031bcb3ee6f4022988bdadd57d3422da30739060200160405180910390a250506007805460ff60a81b1916600160a81b179055565b336001600160a01b037f00000000000000000000000000000000000000000000000000000000000000001614610a725760405162461bcd60e51b815260040161040f90610d3a565b60075460ff1615610a965760405163ab35696f60e01b815260040160405180910390fd5b6001811015610adc5760405162461bcd60e51b8152602060048201526012602482015271436f6d6d69746d656e7420746f6f206c6f7760701b604482015260640161040f565b600a811115610b235760405162461bcd60e51b8152602060048201526013602482015272086dedadad2e8dacadce840e8dede40d0d2ced606b1b604482015260640161040f565b7f00000000000000000000000000000000000000000000000000000000000000006001600160a01b031663c8435ec56040518163ffffffff1660e01b8152600401602060405180830381865afa158015610b7f573d5f5f3e3d5ffd5b505050506040513d601f19601f82011682018060405250810190610ba39190610ddc565b421115610c13576001600160a01b0382165f90815260036020526040902054610bd09062278d0090610d7a565b421015610c135760405162461bcd60e51b815260206004820152601160248201527010dbdb5b5a5d1b595b9d081b1bd8dad959607a1b604482015260640161040f565b6001600160a01b0382165f908152600260205260409020b06005b08290610c3b908390610dc9565b610c459190610d7a565b6005b16001600160a01b0383165f8181526002602090815260408083208690b16003825291829020429081905591519182527fca88f0624be6ad637b9f99bf98d239045062cc05fec0955f87c998194821ae43910160405180910390a2505050565b80356001600160a01b0381168114610cbd575f5ffd5b919050565b5f60208284031215610cd2575f5ffd5b610cdb82610ca7565b9392505050565b5f5f5f60608486031215610cf4575f5ffd5b610cfd84610ca7565b95602085013595506040909401359392505050565b5f5f60408385031215610d23575f5ffd5b610d2c83610ca7565b946020939093013593505050565b60208082526012908201527113db9b1e481c1bdbdb0818d85b8818d85b1b60721b604082015260600190565b634e487b7160e01b5f52601160045260245ffd5b80820180821115610d8d57610d8d610d66565b92915050565b8082028115828204841417610d8d57610d8d610d66565b5f82610dc457634e487b7160e01b5f52601260045260245ffd5b500490565b81810381811115610d8d57610d8d610d66565b5f60208284031215610dec575f5ffd5b505191905056fea26469706673582212202a37ba865f6c55a76646b43b734bc4309c4d947e49dcf0b67978ce158568791b64736f6c637828302e382e32382d646576656c6f702e323032352e322e31332b636f6d6d69742e39363462353035320059","linkReferences":{}},"methodIdentifiers":{"COMMITMENT_LOCK_PERIOD()":"e3b3b137","MAX_CLAIM_AMOUNT()":"e362b4f7","MAX_COMMITMENT_PERCENTAGE()":"01718f97","MIN_COMMITMENT_PERCENTAGE()":"daab23da","MIN_DISTRIBUTION_INTERVAL()":"466620c2","PRECISION()":"aaf5eb68","admin()":"f851a440","changeAdmin(address)":"8f283970","claimDividends(address,suint256)":"c28eb12e","distributeDividends(address,suint256,uint256)":"b3b17d01","getCommitmentPercentage()":"2e3e1ee5","getLastCommitmentUpdate()":"62f803b4","getPendingDividends()":"ef1d8018","getTotalDividendsReceived()":"300cc67d","pause()":"8456cb59","paused()":"5c975abb","pool()":"16f0115b","poolContract()":"88d52ef7","unpause()":"3f4ba83a","updateCommitment(address,suint256)":"e6704616"},"id":18}