{"abi":[{"type":"constructor","inputs":[{"name":"_poolContract","type":"address","internalType":"address"}],"stateMutability":"nonpayable"},{"type":"function","name":"COMMITMENT_LOCK_PERIOD","inputs":[],"outputs":[{"name":"","type":"uint256","internalType":"uint256"}],"stateMutability":"view"},{"type":"function","name":"MAX_CLAIM_AMOUNT","inputs":[],"outputs":[{"name":"","type":"uint256","internalType":"uint256"}],"stateMutability":"view"},{"type":"function","name":"MAX_COMMITMENT_PERCENTAGE","inputs":[],"outputs":[{"name":"","type":"uint256","internalType":"uint256"}],"stateMutability":"view"},{"type":"function","name":"MIN_COMMITMENT_PERCENTAGE","inputs":[],"outputs":[{"name":"","type":"uint256","internalType":"uint256"}],"stateMutability":"view"},{"type":"function","name":"MIN_DISTRIBUTION_INTERVAL","inputs":[],"outputs":[{"name":"","type":"uint256","internalType":"uint256"}],"stateMutability":"view"},{"type":"function","name":"PRECISION","inputs":[],"outputs":[{"name":"","type":"uint256","internalType":"uint256"}],"stateMutability":"view"},{"type":"function","name":"admin","inputs":[],"outputs":[{"name":"","type":"address","internalType":"address"}],"stateMutability":"view"},{"type":"function","name":"changeAdmin","inputs":[{"name":"newAdmin","type":"address","internalType":"address"}],"outputs":[],"stateMutability":"nonpayable"},{"type":"function","name":"claimDividends","inputs":[{"name":"member","type":"address","internalType":"address"},{"name":"amount","type":"suint256","internalType":"suint256"}],"outputs":[],"stateMutability":"nonpayable"},{"type":"function","name":"distributeDividends","inputs":[{"name":"member","type":"address","internalType":"address"},{"name":"amount","type":"suint256","internalType":"suint256"},{"name":"memberCount","type":"uint256","internalType":"uint256"}],"outputs":[],"stateMutability":"nonpayable"},{"type":"function","name":"getCommitmentPercentage","inputs":[],"outputs":[{"name":"","type":"uint256","internalType":"uint256"}],"stateMutability":"view"},{"type":"function","name":"getLastCommitmentUpdate","inputs":[],"outputs":[{"name":"","type":"uint256","internalType":"uint256"}],"stateMutability":"view"},{"type":"function","name":"getPendingDividends","inputs":[],"outputs":[{"name":"","type":"uint256","internalType":"uint256"}],"stateMutability":"view"},{"type":"function","name":"getTotalDividendsReceived","inputs":[],"outputs":[{"name":"","type":"uint256","internalType":"uint256"}],"stateMutability":"view"},{"type":"function","name":"pause","inputs":[],"outputs":[],"stateMutability":"nonpayable"},{"type":"function","name":"paused","inputs":[],"outputs":[{"name":"","type":"bool","internalType":"bool"}],"stateMutability":"view"},{"type":"function","name":"poolContract","inputs":[],"outputs":[{"name":"","type":"address","internalType":"address"}],"stateMutability":"view"},{"type":"function","name":"unpause","inputs":[],"outputs":[],"stateMutability":"nonpayable"},{"type":"function","name":"updateCommitment","inputs":[{"name":"member","type":"address","internalType":"address"},{"name":"percentage","type":"suint256","internalType":"suint256"}],"outputs":[],"stateMutability":"nonpayable"},{"type":"event","name":"AdminChanged","inputs":[{"name":"newAdmin","type":"address","indexed":true,"internalType":"address"}],"anonymous":false},{"type":"event","name":"CommitmentUpdated","inputs":[{"name":"member","type":"address","indexed":true,"internalType":"address"},{"name":"timestamp","type":"uint256","indexed":false,"internalType":"uint256"}],"anonymous":false},{"type":"event","name":"DividendsClaimed","inputs":[{"name":"member","type":"address","indexed":true,"internalType":"address"},{"name":"timestamp","type":"uint256","indexed":false,"internalType":"uint256"}],"anonymous":false},{"type":"event","name":"DividendsDistributed","inputs":[{"name":"memberCount","type":"uint256","indexed":false,"internalType":"uint256"},{"name":"timestamp","type":"uint256","indexed":false,"internalType":"uint256"}],"anonymous":false},{"type":"event","name":"EmergencyPaused","inputs":[],"anonymous":false},{"type":"event","name":"EmergencyUnpaused","inputs":[],"anonymous":false},{"type":"error","name":"ClaimAmountTooLarge","inputs":[]},{"type":"error","name":"ContractPaused","inputs":[]},{"type":"error","name":"DistributionTooFrequent","inputs":[]},{"type":"error","name":"PrecisionError","inputs":[]},{"type":"error","name":"ReentrancyGuard","inputs":[]},{"type":"error","name":"Unauthorized","inputs":[]}],"bytecode":{"object":"0x60a06040526007805460ff60a81b1916600160a81b179055348015610022575f5ffd5b50604051610e9c380380610e9c833981016040819052610041916100c3565b6001600160a01b03811661009b5760405162461bcd60e51b815260206004820152601460248201527f496e76616c696420706f6f6c2061646472657373000000000000000000000000604482015260640160405180910390fd5b6001600160a01b031660805260078054610100600160a81b03191633610100021790556100f0565b5f602082840312156100d3575f5ffd5b81516001600160a01b03811681146100e9575f5ffd5b9392505050565b608051610d7f61011d5f395f81816101b501528181610442015281816107810152610a030152610d7f5ff3fe608060405234801561000f575f5ffd5b506004361061011c575f3560e01c80638f283970116100a9578063e362b4f71161006e578063e362b4f71461023f578063e3b3b13714610252578063e67046161461025c578063ef1d80181461026f578063f851a44014610283575f5ffd5b80638f283970146101ef578063aaf5eb6814610202578063b3b17d0114610211578063c28eb12e14610224578063daab23da14610237575f5ffd5b8063466620c2116100ef578063466620c21461016d5780635c975abb1461017757806362f803b4146101945780638456cb59146101a857806388d52ef7146101b0575f5ffd5b806301718f97146101205780632e3e1ee51461013b578063300cc67d1461014f5780633f4ba83a14610163575b5f5ffd5b610128600a81565b6040519081526020015b60405180910390f35b335f908152600260205260409020b0610128565b335f908152600160205260409020b0610128565b61016b61029b565b005b6101286201518081565b6007546101849060ff1681565b6040519015158152602001610132565b335f90815260036020526040902054610128565b61016b6102fe565b6101d77f000000000000000000000000000000000000000000000000000000000000000081565b6040516001600160a01b039091168152602001610132565b61016b6101fd366004610c09565b610364565b610128670de0b6b3a764000081565b61016b61021f366004610c29565b610437565b61016b610232366004610c59565b610776565b610128600181565b6101286b033b2e3c9fd0803ce800000081565b61012862278d0081565b61016b61026a366004610c59565b6109f8565b335f908152602081905260409020b0610128565b6007546101d79061010090046001600160a01b031681565b60075461010090046001600160a01b031633146102ca576040516282b42960e81b815260040160405180910390fd5b6007805460ff191690556040517f15de7ad89d29fd1c6d2e6b1e878453569b4080edf34e0105faaa3bd52f018530905f90a1565b60075461010090046001600160a01b0316331461032d576040516282b42960e81b815260040160405180910390fd5b6007805460ff191660011790556040517f4cb3183d0bf66f9634b15cfc3539fdddc96c2c9324848af89b56586a6739fec4905f90a1565b60075461010090046001600160a01b03163314610393576040516282b42960e81b815260040160405180910390fd5b6001600160a01b0381166103e65760405162461bcd60e51b8152602060048201526015602482015274496e76616c69642061646d696e206164647265737360581b60448201526064015b60405180910390fd5b60078054610100600160a81b0319166101006001600160a01b038416908102919091179091556040517f7ce7ec0b50378fb6c0186ffb5f48325f6593fcb4ca4386f21861af3129188f5c905f90a250565b336001600160a01b037f0000000000000000000000000000000000000000000000000000000000000000161461047f5760405162461bcd60e51b81526004016103dd90610c81565b600754600160a81b900460ff166104a9576040516345f5ce8b60e11b815260040160405180910390fd5b6007805460ff60a81b19811690915560ff16156104d95760405163ab35696f60e01b815260040160405180910390fd5b5f81116105285760405162461bcd60e51b815260206004820152601b60248201527f4e6f206d656d6265727320746f206469737472696275746520746f000000000060448201526064016103dd565b5f6005b0116105795760405162461bcd60e51b815260206004820152601960248201527f4e6f20636f6d6d69746d656e747320726567697374657265640000000000000060448201526064016103dd565b6001600160a01b0383165f908152600260205260409020b06105d85760405162461bcd60e51b815260206004820152601860248201527713595b58995c881a185cc81b9bc818dbdb5b5a5d1b595b9d60421b60448201526064016103dd565b6001600160a01b0383165f908152600460205260409020546105fe906201518090610cc1565b42101561061e576040516337eb439f60e11b815260040160405180910390fd5b6001600160a01b0383165f908152600260205260409020b0670de0b6b3a764000090839061064c9082610cda565b90506106588282610cda565b90506005b0816106689190610cf1565b90506106748282610cf1565b9050838111156106c65760405162461bcd60e51b815260206004820152601760248201527f53686172652063616c63756c6174696f6e206572726f7200000000000000000060448201526064016103dd565b8360065f8282b06106d79190610cc1565b9091b150506001600160a01b0385165f90815260208190526040812080b0839290610703908490610cc1565b9091b150506001600160a01b0385165f9081526004602090815260409182902042908190558251868152918201527fac4c4b96e3856cb20170077826b7701a887bdaf8d743f369b438133249a1f82f910160405180910390a150506007805460ff60a81b1916600160a81b179055505050565b336001600160a01b037f000000000000000000000000000000000000000000000000000000000000000016146107be5760405162461bcd60e51b81526004016103dd90610c81565b600754600160a81b900460ff166107e8576040516345f5ce8b60e11b815260040160405180910390fd5b6007805460ff60a81b19811690915560ff16156108185760405163ab35696f60e01b815260040160405180910390fd5b5f811161085f5760405162461bcd60e51b81526020600482015260156024820152744e6f206469766964656e647320746f20636c61696d60581b60448201526064016103dd565b6001600160a01b0382165f908152600260205260409020b06108be5760405162461bcd60e51b815260206004820152601860248201527713595b58995c881a185cc81b9bc818dbdb5b5a5d1b595b9d60421b60448201526064016103dd565b6b033b2e3c9fd0803ce80000008111156108eb57604051632097ca5b60e01b815260040160405180910390fd5b6001600160a01b0382165f908152602081905260409020b081111561094b5760405162461bcd60e51b8152602060048201526016602482015275496e73756666696369656e74206469766964656e647360501b60448201526064016103dd565b6001600160a01b0382165f90815260208190526040812080b0839290610972908490610d10565b9091b150506001600160a01b0382165f90815260016020526040812080b083929061099e908490610cc1565b9091b150506040514281526001600160a01b038316907f16b8533c95f66ab8c192c98ddcf5031bcb3ee6f4022988bdadd57d3422da30739060200160405180910390a250506007805460ff60a81b1916600160a81b179055565b336001600160a01b037f00000000000000000000000000000000000000000000000000000000000000001614610a405760405162461bcd60e51b81526004016103dd90610c81565b60075460ff1615610a645760405163ab35696f60e01b815260040160405180910390fd5b6001811015610aaa5760405162461bcd60e51b8152602060048201526012602482015271436f6d6d69746d656e7420746f6f206c6f7760701b60448201526064016103dd565b600a811115610af15760405162461bcd60e51b8152602060048201526013602482015272086dedadad2e8dacadce840e8dede40d0d2ced606b1b60448201526064016103dd565b6001600160a01b0382165f90815260036020526040902054610b179062278d0090610cc1565b421015610b5a5760405162461bcd60e51b815260206004820152601160248201527010dbdb5b5a5d1b595b9d081b1bd8dad959607a1b60448201526064016103dd565b6001600160a01b0382165f908152600260205260409020b06005b08290610b82908390610d10565b610b8c9190610cc1565b6005b16001600160a01b0383165f8181526002602090815260408083208690b16003825291829020429081905591519182527fca88f0624be6ad637b9f99bf98d239045062cc05fec0955f87c998194821ae43910160405180910390a2505050565b80356001600160a01b0381168114610c04575f5ffd5b919050565b5f60208284031215610c19575f5ffd5b610c2282610bee565b9392505050565b5f5f5f60608486031215610c3b575f5ffd5b610c4484610bee565b95602085013595506040909401359392505050565b5f5f60408385031215610c6a575f5ffd5b610c7383610bee565b946020939093013593505050565b60208082526012908201527113db9b1e481c1bdbdb0818d85b8818d85b1b60721b604082015260600190565b634e487b7160e01b5f52601160045260245ffd5b80820180821115610cd457610cd4610cad565b92915050565b8082028115828204841417610cd457610cd4610cad565b5f82610d0b57634e487b7160e01b5f52601260045260245ffd5b500490565b81810381811115610cd457610cd4610cad56fea2646970667358221220d273b690ed788985cd71346b3ef4dc85308d54792611e00666a7f9df78f1c5c464736f6c637828302e382e32382d646576656c6f702e323032352e322e31332b636f6d6d69742e39363462353035320059","linkReferences":{}},"methodIdentifiers":{"COMMITMENT_LOCK_PERIOD()":"e3b3b137","MAX_CLAIM_AMOUNT()":"e362b4f7","MAX_COMMITMENT_PERCENTAGE()":"01718f97","MIN_COMMITMENT_PERCENTAGE()":"daab23da","MIN_DISTRIBUTION_INTERVAL()":"466620c2","PRECISION()":"aaf5eb68","admin()":"f851a440","changeAdmin(address)":"8f283970","claimDividends(address,suint256)":"c28eb12e","distributeDividends(address,suint256,uint256)":"b3b17d01","getCommitmentPercentage()":"2e3e1ee5","getLastCommitmentUpdate()":"62f803b4","getPendingDividends()":"ef1d8018","getTotalDividendsReceived()":"300cc67d","pause()":"8456cb59","paused()":"5c975abb","poolContract()":"88d52ef7","unpause()":"3f4ba83a","updateCommitment(address,suint256)":"e6704616"},"id":18}