{"abi":[{"type":"constructor","inputs":[],"stateMutability":"nonpayable"},{"type":"function","name":"MAX_CONTRIBUTION","inputs":[],"outputs":[{"name":"","type":"uint256","internalType":"uint256"}],"stateMutability":"view"},{"type":"function","name":"MIN_PROCESS_INTERVAL","inputs":[],"outputs":[{"name":"","type":"uint256","internalType":"uint256"}],"stateMutability":"view"},{"type":"function","name":"admin","inputs":[],"outputs":[{"name":"","type":"address","internalType":"address"}],"stateMutability":"view"},{"type":"function","name":"changeAdmin","inputs":[{"name":"newAdmin","type":"address","internalType":"address"}],"outputs":[],"stateMutability":"nonpayable"},{"type":"function","name":"getLastContribution","inputs":[],"outputs":[{"name":"","type":"uint256","internalType":"uint256"}],"stateMutability":"view"},{"type":"function","name":"getLastProcessTime","inputs":[],"outputs":[{"name":"","type":"uint256","internalType":"uint256"}],"stateMutability":"view"},{"type":"function","name":"getTotalProcessedValue","inputs":[],"outputs":[{"name":"","type":"uint256","internalType":"uint256"}],"stateMutability":"view"},{"type":"function","name":"pause","inputs":[],"outputs":[],"stateMutability":"nonpayable"},{"type":"function","name":"paused","inputs":[],"outputs":[{"name":"","type":"bool","internalType":"bool"}],"stateMutability":"view"},{"type":"function","name":"poolContract","inputs":[],"outputs":[{"name":"","type":"address","internalType":"address"}],"stateMutability":"view"},{"type":"function","name":"processContribution","inputs":[{"name":"contributor","type":"address","internalType":"address"},{"name":"amount","type":"suint256","internalType":"suint256"}],"outputs":[],"stateMutability":"nonpayable"},{"type":"function","name":"setPoolContract","inputs":[{"name":"_poolContract","type":"address","internalType":"address"}],"outputs":[],"stateMutability":"nonpayable"},{"type":"function","name":"unpause","inputs":[],"outputs":[],"stateMutability":"nonpayable"},{"type":"event","name":"AdminChanged","inputs":[{"name":"newAdmin","type":"address","indexed":true,"internalType":"address"}],"anonymous":false},{"type":"event","name":"ContributionProcessed","inputs":[{"name":"contributor","type":"address","indexed":true,"internalType":"address"}],"anonymous":false},{"type":"event","name":"ContributionVerified","inputs":[{"name":"contributor","type":"address","indexed":true,"internalType":"address"}],"anonymous":false},{"type":"event","name":"EmergencyPaused","inputs":[],"anonymous":false},{"type":"event","name":"EmergencyUnpaused","inputs":[],"anonymous":false},{"type":"event","name":"PoolContractUpdated","inputs":[{"name":"newPool","type":"address","indexed":true,"internalType":"address"}],"anonymous":false},{"type":"error","name":"ContractPaused","inputs":[]},{"type":"error","name":"ContributionTooLarge","inputs":[]},{"type":"error","name":"ProcessTooFrequent","inputs":[]},{"type":"error","name":"Unauthorized","inputs":[]}],"bytecode":{"object":"0x6080604052348015600e575f5ffd5b5060038054610100600160a81b031916336101000217905561075a806100335f395ff3fe608060405234801561000f575f5ffd5b50600436106100cb575f3560e01c806382017f3a116100885780638f283970116100635780638f2839701461019057806394d95f8f146101a3578063dade1db6146101b6578063f851a440146101ca575f5ffd5b806382017f3a1461014a5780638456cb591461015d57806388d52ef714610165575f5ffd5b806327082dc8146100cf5780633f4ba83a146100f25780634268b946146100fc57806358c05d081461010657806359c3f3e01461011a5780635c975abb1461012d575b5f5ffd5b335f908152602081905260409020b05b6040519081526020015b60405180910390f35b6100fa6101e2565b005b6100df6201518081565b335f908152600160205260409020b06100df565b6100fa610128366004610689565b610245565b60035461013a9060ff1681565b60405190151581526020016100e9565b6100fa6101583660046106a9565b61035b565b6100fa61053a565b600454610178906001600160a01b031681565b6040516001600160a01b0390911681526020016100e9565b6100fa61019e366004610689565b6105a0565b6100df6b033b2e3c9fd0803ce800000081565b335f908152600260205260409020546100df565b6003546101789061010090046001600160a01b031681565b60035461010090046001600160a01b03163314610211576040516282b42960e81b815260040160405180910390fd5b6003805460ff191690556040517f15de7ad89d29fd1c6d2e6b1e878453569b4080edf34e0105faaa3bd52f018530905f90a1565b60035461010090046001600160a01b03163314610274576040516282b42960e81b815260040160405180910390fd5b6004546001600160a01b0316156102c55760405162461bcd60e51b815260206004820152601060248201526f141bdbdb08185b1c9958591e481cd95d60821b60448201526064015b60405180910390fd5b6001600160a01b0381166103125760405162461bcd60e51b8152602060048201526014602482015273496e76616c696420706f6f6c206164647265737360601b60448201526064016102bc565b600480546001600160a01b0319166001600160a01b0383169081179091556040517fae6caaf26476addd0fa9d67c51cd46860144fabd967318724eab703d94d371dc905f90a250565b6004546001600160a01b031633146103aa5760405162461bcd60e51b815260206004820152601260248201527113db9b1e481c1bdbdb0818d85b8818d85b1b60721b60448201526064016102bc565b60035460ff16156103ce5760405163ab35696f60e01b815260040160405180910390fd5b6001600160a01b0382166104245760405162461bcd60e51b815260206004820152601b60248201527f496e76616c696420636f6e7472696275746f722061646472657373000000000060448201526064016102bc565b6b033b2e3c9fd0803ce80000008111156104795760405162461bcd60e51b8152602060048201526016602482015275436f6e747269627574696f6e20746f6f206c6172676560501b60448201526064016102bc565b6001600160a01b0382165f9081526002602052604090205461049f9062015180906106e5565b4210156104bf576040516307f325cf60e31b815260040160405180910390fd5b6001600160a01b0382165f908152602081815260408083208490b16001909152812080b08392906104f19084906106e5565b9091b150506001600160a01b0382165f81815260026020526040808220429055517f526a7a9f765f34f55626a1df784a5fc03f3c6a8e2add7a3908fbf3f5d9e1f8889190a25050565b60035461010090046001600160a01b03163314610569576040516282b42960e81b815260040160405180910390fd5b6003805460ff191660011790556040517f4cb3183d0bf66f9634b15cfc3539fdddc96c2c9324848af89b56586a6739fec4905f90a1565b60035461010090046001600160a01b031633146105cf576040516282b42960e81b815260040160405180910390fd5b6001600160a01b03811661061d5760405162461bcd60e51b8152602060048201526015602482015274496e76616c69642061646d696e206164647265737360581b60448201526064016102bc565b60038054610100600160a81b0319166101006001600160a01b038416908102919091179091556040517f7ce7ec0b50378fb6c0186ffb5f48325f6593fcb4ca4386f21861af3129188f5c905f90a250565b80356001600160a01b0381168114610684575f5ffd5b919050565b5f60208284031215610699575f5ffd5b6106a28261066e565b9392505050565b5f5f604083850312156106ba575f5ffd5b6106c38361066e565b946020939093013593505050565b634e487b7160e01b5f52601160045260245ffd5b808201808211156106f8576106f86106d1565b9291505056fea2646970667358221220de9bf1c5d9f81fa5d35d954025e36a2b2f792cf27a4244500374eeffc654a3ac64736f6c637828302e382e32382d646576656c6f702e323032352e322e31332b636f6d6d69742e39363462353035320059","linkReferences":{}},"methodIdentifiers":{"MAX_CONTRIBUTION()":"94d95f8f","MIN_PROCESS_INTERVAL()":"4268b946","admin()":"f851a440","changeAdmin(address)":"8f283970","getLastContribution()":"27082dc8","getLastProcessTime()":"dade1db6","getTotalProcessedValue()":"58c05d08","pause()":"8456cb59","paused()":"5c975abb","poolContract()":"88d52ef7","processContribution(address,suint256)":"82017f3a","setPoolContract(address)":"59c3f3e0","unpause()":"3f4ba83a"},"id":21}