{"abi":[{"type":"constructor","inputs":[{"name":"_exitContribution","type":"address","internalType":"address"},{"name":"_dividendDistributor","type":"address","internalType":"address"},{"name":"_weth","type":"address","internalType":"address"}],"stateMutability":"nonpayable"},{"type":"function","name":"MAX_COMMITMENT_PERCENTAGE","inputs":[],"outputs":[{"name":"","type":"uint256","internalType":"uint256"}],"stateMutability":"view"},{"type":"function","name":"MAX_EXIT_VALUE","inputs":[],"outputs":[{"name":"","type":"uint256","internalType":"uint256"}],"stateMutability":"view"},{"type":"function","name":"MIN_COMMITMENT_PERCENTAGE","inputs":[],"outputs":[{"name":"","type":"uint256","internalType":"uint256"}],"stateMutability":"view"},{"type":"function","name":"MIN_CONTRIBUTION_INTERVAL","inputs":[],"outputs":[{"name":"","type":"uint256","internalType":"uint256"}],"stateMutability":"view"},{"type":"function","name":"MIN_MEMBERSHIP_PERIOD","inputs":[],"outputs":[{"name":"","type":"uint256","internalType":"uint256"}],"stateMutability":"view"},{"type":"function","name":"WETH","inputs":[],"outputs":[{"name":"","type":"address","internalType":"contract IWETH"}],"stateMutability":"view"},{"type":"function","name":"admin","inputs":[],"outputs":[{"name":"","type":"address","internalType":"address"}],"stateMutability":"view"},{"type":"function","name":"changeAdmin","inputs":[{"name":"newAdmin","type":"address","internalType":"address"}],"outputs":[],"stateMutability":"nonpayable"},{"type":"function","name":"contributeExit","inputs":[{"name":"contribution","type":"suint256","internalType":"suint256"}],"outputs":[],"stateMutability":"nonpayable"},{"type":"function","name":"dividendDistributor","inputs":[],"outputs":[{"name":"","type":"address","internalType":"contract DividendDistributor"}],"stateMutability":"view"},{"type":"function","name":"exitContribution","inputs":[],"outputs":[{"name":"","type":"address","internalType":"contract ExitContribution"}],"stateMutability":"view"},{"type":"function","name":"getCommitmentPercentage","inputs":[],"outputs":[{"name":"","type":"uint256","internalType":"uint256"}],"stateMutability":"view"},{"type":"function","name":"getMemberJoinTime","inputs":[],"outputs":[{"name":"","type":"uint256","internalType":"uint256"}],"stateMutability":"view"},{"type":"function","name":"getTotalContributed","inputs":[],"outputs":[{"name":"","type":"uint256","internalType":"uint256"}],"stateMutability":"view"},{"type":"function","name":"joinPool","inputs":[{"name":"commitmentPercentage","type":"suint256","internalType":"suint256"}],"outputs":[],"stateMutability":"nonpayable"},{"type":"function","name":"leavePool","inputs":[],"outputs":[],"stateMutability":"nonpayable"},{"type":"function","name":"memberCount","inputs":[],"outputs":[{"name":"","type":"uint256","internalType":"uint256"}],"stateMutability":"view"},{"type":"function","name":"pause","inputs":[],"outputs":[],"stateMutability":"nonpayable"},{"type":"function","name":"paused","inputs":[],"outputs":[{"name":"","type":"bool","internalType":"bool"}],"stateMutability":"view"},{"type":"function","name":"setDividendDistributor","inputs":[{"name":"_dividendDistributor","type":"address","internalType":"address"}],"outputs":[],"stateMutability":"nonpayable"},{"type":"function","name":"unpause","inputs":[],"outputs":[],"stateMutability":"nonpayable"},{"type":"event","name":"AdminChanged","inputs":[{"name":"newAdmin","type":"address","indexed":true,"internalType":"address"}],"anonymous":false},{"type":"event","name":"ContributionReceived","inputs":[{"name":"member","type":"address","indexed":true,"internalType":"address"}],"anonymous":false},{"type":"event","name":"DividendDistributorUpdated","inputs":[{"name":"newDistributor","type":"address","indexed":true,"internalType":"address"}],"anonymous":false},{"type":"event","name":"DividendsDistributed","inputs":[],"anonymous":false},{"type":"event","name":"EmergencyPaused","inputs":[],"anonymous":false},{"type":"event","name":"EmergencyUnpaused","inputs":[],"anonymous":false},{"type":"event","name":"MemberJoined","inputs":[{"name":"member","type":"address","indexed":true,"internalType":"address"}],"anonymous":false},{"type":"event","name":"MemberLeft","inputs":[{"name":"member","type":"address","indexed":true,"internalType":"address"}],"anonymous":false},{"type":"error","name":"ContractPaused","inputs":[]},{"type":"error","name":"ContributionTooFrequent","inputs":[]},{"type":"error","name":"MinMembershipPeriodNotMet","inputs":[]},{"type":"error","name":"TransferFailed","inputs":[]},{"type":"error","name":"Unauthorized","inputs":[]}],"bytecode":{"object":"0x60a060405234801561000f575f5ffd5b50604051610ec9380380610ec983398101604081905261002e9161014a565b6001600160a01b0383166100935760405162461bcd60e51b815260206004820152602160248201527f496e76616c6964206578697420636f6e747269627574696f6e206164647265736044820152607360f81b60648201526084015b60405180910390fd5b6001600160a01b0381166100e95760405162461bcd60e51b815260206004820152601460248201527f496e76616c696420574554482061646472657373000000000000000000000000604482015260640161008a565b600680546001600160a01b039485166001600160a01b0319918216179091556007805493851693821693909317909255909116608052600880549091163317905561018a565b80516001600160a01b0381168114610145575f5ffd5b919050565b5f5f5f6060848603121561015c575f5ffd5b6101658461012f565b92506101736020850161012f565b91506101816040850161012f565b90509250925092565b608051610d206101a95f395f8181610219015261064e0152610d205ff3fe608060405234801561000f575f5ffd5b5060043610610132575f3560e01c8063780cf44d116100b4578063bad3ea6a11610079578063bad3ea6a14610253578063c61d43f414610266578063daab23da14610279578063de96a6a714610281578063f19e9d8114610294578063f851a4401461029c575f5ffd5b8063780cf44d146101e557806379ffdd8e146101ef5780638456cb59146101f95780638f28397014610201578063ad5c464814610214575f5ffd5b806332516d48116100fa57806332516d481461017e5780633cb7c5e5146101935780633f4ba83a146101a65780634ec96434146101ae5780635c975abb146101c1575f5ffd5b806301718f971461013657806311aee38014610151578063163a1fad1461015a57806318e4274d1461016e5780632e3e1ee514610176575b5f5ffd5b61013e600a81565b6040519081526020015b60405180910390f35b61013e60055481565b335f9081526003602052604090205461013e565b61013e6102af565b61013e6102f6565b61019161018c366004610bab565b610334565b005b6101916101a1366004610bd8565b610456565b610191610737565b61013e6b033b2e3c9fd0803ce800000081565b6007546101d590600160a01b900460ff1681565b6040519015158152602001610148565b61013e62093a8081565b61013e6276a70081565b610191610798565b61019161020f366004610bab565b6107ff565b61023b7f000000000000000000000000000000000000000000000000000000000000000081565b6040516001600160a01b039091168152602001610148565b60075461023b906001600160a01b031681565b60065461023b906001600160a01b031681565b61013e600181565b61019161028f366004610bd8565b6108c0565b610191610a34565b60085461023b906001600160a01b031681565b335f908152600260205260408120b06102e35760405162461bcd60e51b81526004016102da90610bef565b60405180910390fd5b50335f908152600160205260409020b090565b335f908152600260205260408120b06103215760405162461bcd60e51b81526004016102da90610bef565b50335f908152602081905260409020b090565b6008546001600160a01b0316331461035e576040516282b42960e81b815260040160405180910390fd5b6007546001600160a01b0316156103b75760405162461bcd60e51b815260206004820152601760248201527f4469737472696275746f7220616c72656164792073657400000000000000000060448201526064016102da565b6001600160a01b03811661040d5760405162461bcd60e51b815260206004820152601b60248201527f496e76616c6964206469737472696275746f722061646472657373000000000060448201526064016102da565b600780546001600160a01b0319166001600160a01b0383169081179091556040517f5cd41c4f268c11c5003ab2a9a63d417f5e77055f17bcc5d9607ba1ff4d0d1d25905f90a250565b600754600160a01b900460ff16156104815760405163ab35696f60e01b815260040160405180910390fd5b335f908152600260205260409020b06104ac5760405162461bcd60e51b81526004016102da90610bef565b335f908152602081905260408120b06104c6606484610c29565b6104d09190610c46565b90506b033b2e3c9fd0803ce80000008111156105255760405162461bcd60e51b8152602060048201526014602482015273457869742076616c756520746f6f206c6172676560601b60448201526064016102da565b600654604051634100bf9d60e11b8152336004820152602481018490526001600160a01b03909116906382017f3a906044015f604051808303815f87803b15801561056e575f5ffd5b505af1158015610580573d5f5f3e3d5ffd5b505060075460055460405163b3b17d0160e01b81523360048201526024810187905260448101919091526001600160a01b03909116925063b3b17d0191506064015f604051808303815f87803b1580156105d8575f5ffd5b505af11580156105ea573d5f5f3e3d5ffd5b5050335f90815260016020526040812080b086945090925061060d908490610c65565b9250508190b1508160045f8282b06106259190610c65565b9091b150506040516323b872dd60e01b8152336004820152306024820152604481018390525f907f00000000000000000000000000000000000000000000000000000000000000006001600160a01b0316906323b872dd906064016020604051808303815f875af115801561069c573d5f5f3e3d5ffd5b505050506040513d601f19601f820116820180604052508101906106c09190610c78565b9050806106e0576040516312171d8360e31b815260040160405180910390fd5b60405133907f9ca0de0709c575c61710159cf212e68fa7f9bd8d600cb008ae8c028b7e54b705905f90a26040517f1410eda4cb8a65aa23dee7593287857cc4aab930459d0a5cebcaff25a7f7a8c7905f90a1505050565b6008546001600160a01b03163314610761576040516282b42960e81b815260040160405180910390fd5b6007805460ff60a01b191690556040517f15de7ad89d29fd1c6d2e6b1e878453569b4080edf34e0105faaa3bd52f018530905f90a1565b6008546001600160a01b031633146107c2576040516282b42960e81b815260040160405180910390fd5b6007805460ff60a01b1916600160a01b1790556040517f4cb3183d0bf66f9634b15cfc3539fdddc96c2c9324848af89b56586a6739fec4905f90a1565b6008546001600160a01b03163314610829576040516282b42960e81b815260040160405180910390fd5b6001600160a01b0381166108775760405162461bcd60e51b8152602060048201526015602482015274496e76616c69642061646d696e206164647265737360581b60448201526064016102da565b600880546001600160a01b0319166001600160a01b0383169081179091556040517f7ce7ec0b50378fb6c0186ffb5f48325f6593fcb4ca4386f21861af3129188f5c905f90a250565b335f908152600260205260409020b01561090f5760405162461bcd60e51b815260206004820152601060248201526f20b63932b0b23c90309036b2b6b132b960811b60448201526064016102da565b600181101580156109215750600a8111155b61096d5760405162461bcd60e51b815260206004820152601d60248201527f496e76616c696420636f6d6d69746d656e742070657263656e7461676500000060448201526064016102da565b335f908152600260209081526040808320600190b1600382528083204290559082905281208290b160058054916109a383610c97565b9091555050600754604051637338230b60e11b8152336004820152602481018390526001600160a01b039091169063e6704616906044015f604051808303815f87803b1580156109f1575f5ffd5b505af1158015610a03573d5f5f3e3d5ffd5b50506040513392507f0abf3b3f643594d958297062a019458e27d7766629590ac621aa1000fa1298ab91505f90a250565b600754600160a01b900460ff1615610a5f5760405163ab35696f60e01b815260040160405180910390fd5b335f908152600260205260409020b0610a8a5760405162461bcd60e51b81526004016102da90610bef565b335f908152600160205260409020b0610ae55760405162461bcd60e51b815260206004820152601e60248201527f4d75737420636f6e74726962757465206265666f7265206c656176696e67000060448201526064016102da565b335f90815260036020526040902054610b02906276a70090610c65565b421015610b5b5760405162461bcd60e51b815260206004820152602160248201527f4d696e696d756d206d656d6265727368697020706572696f64206e6f74206d656044820152601d60fa1b60648201526084016102da565b335f9081526002602052604081208190b16005805491610b7a83610caf565b909155505060405133907fbea911b50ccdd2233b28faa49766c3cbd0631608f32e5a724d7b83b32b681ad0905f90a2565b5f60208284031215610bbb575f5ffd5b81356001600160a01b0381168114610bd1575f5ffd5b9392505050565b5f60208284031215610be8575f5ffd5b5035919050565b6020808252600c908201526b2737ba10309036b2b6b132b960a11b604082015260600190565b634e487b7160e01b5f52601160045260245ffd5b8082028115828204841417610c4057610c40610c15565b92915050565b5f82610c6057634e487b7160e01b5f52601260045260245ffd5b500490565b80820180821115610c4057610c40610c15565b5f60208284031215610c88575f5ffd5b81518015158114610bd1575f5ffd5b5f60018201610ca857610ca8610c15565b5060010190565b5f81610cbd57610cbd610c15565b505f19019056fea26469706673582212209f0ce7da7822c1c651397b3d30d36fb40c63fd66ab460f6cc6bc26df2dee8dc364736f6c637828302e382e32382d646576656c6f702e323032352e322e31332b636f6d6d69742e39363462353035320059","linkReferences":{}},"methodIdentifiers":{"MAX_COMMITMENT_PERCENTAGE()":"01718f97","MAX_EXIT_VALUE()":"4ec96434","MIN_COMMITMENT_PERCENTAGE()":"daab23da","MIN_CONTRIBUTION_INTERVAL()":"780cf44d","MIN_MEMBERSHIP_PERIOD()":"79ffdd8e","WETH()":"ad5c4648","admin()":"f851a440","changeAdmin(address)":"8f283970","contributeExit(suint256)":"3cb7c5e5","dividendDistributor()":"bad3ea6a","exitContribution()":"c61d43f4","getCommitmentPercentage()":"2e3e1ee5","getMemberJoinTime()":"163a1fad","getTotalContributed()":"18e4274d","joinPool(suint256)":"de96a6a7","leavePool()":"f19e9d81","memberCount()":"11aee380","pause()":"8456cb59","paused()":"5c975abb","setDividendDistributor(address)":"32516d48","unpause()":"3f4ba83a"},"id":23}