{"abi":[{"type":"constructor","inputs":[{"name":"_exitContribution","type":"address","internalType":"address"},{"name":"_dividendDistributor","type":"address","internalType":"address"},{"name":"_governance","type":"address","internalType":"address"}],"stateMutability":"nonpayable"},{"type":"function","name":"MAX_COMMITMENT_PERCENTAGE","inputs":[],"outputs":[{"name":"","type":"uint256","internalType":"uint256"}],"stateMutability":"view"},{"type":"function","name":"MAX_EXIT_VALUE","inputs":[],"outputs":[{"name":"","type":"uint256","internalType":"uint256"}],"stateMutability":"view"},{"type":"function","name":"MIN_COMMITMENT_PERCENTAGE","inputs":[],"outputs":[{"name":"","type":"uint256","internalType":"uint256"}],"stateMutability":"view"},{"type":"function","name":"MIN_CONTRIBUTION_INTERVAL","inputs":[],"outputs":[{"name":"","type":"uint256","internalType":"uint256"}],"stateMutability":"view"},{"type":"function","name":"MIN_MEMBERSHIP_PERIOD","inputs":[],"outputs":[{"name":"","type":"uint256","internalType":"uint256"}],"stateMutability":"view"},{"type":"function","name":"admin","inputs":[],"outputs":[{"name":"","type":"address","internalType":"address"}],"stateMutability":"view"},{"type":"function","name":"changeAdmin","inputs":[{"name":"newAdmin","type":"address","internalType":"address"}],"outputs":[],"stateMutability":"nonpayable"},{"type":"function","name":"contributeExit","inputs":[{"name":"exitValue","type":"suint256","internalType":"suint256"}],"outputs":[],"stateMutability":"nonpayable"},{"type":"function","name":"dividendDistributor","inputs":[],"outputs":[{"name":"","type":"address","internalType":"contract DividendDistributor"}],"stateMutability":"view"},{"type":"function","name":"exitContribution","inputs":[],"outputs":[{"name":"","type":"address","internalType":"contract ExitContribution"}],"stateMutability":"view"},{"type":"function","name":"getCommitmentPercentage","inputs":[],"outputs":[{"name":"","type":"uint256","internalType":"uint256"}],"stateMutability":"view"},{"type":"function","name":"getMemberJoinTime","inputs":[],"outputs":[{"name":"","type":"uint256","internalType":"uint256"}],"stateMutability":"view"},{"type":"function","name":"getTotalContributed","inputs":[],"outputs":[{"name":"","type":"uint256","internalType":"uint256"}],"stateMutability":"view"},{"type":"function","name":"governance","inputs":[],"outputs":[{"name":"","type":"address","internalType":"contract Governance"}],"stateMutability":"view"},{"type":"function","name":"joinPool","inputs":[{"name":"percentage","type":"suint256","internalType":"suint256"}],"outputs":[],"stateMutability":"nonpayable"},{"type":"function","name":"leavePool","inputs":[],"outputs":[],"stateMutability":"nonpayable"},{"type":"function","name":"memberCount","inputs":[],"outputs":[{"name":"","type":"uint256","internalType":"uint256"}],"stateMutability":"view"},{"type":"function","name":"pause","inputs":[],"outputs":[],"stateMutability":"nonpayable"},{"type":"function","name":"paused","inputs":[],"outputs":[{"name":"","type":"bool","internalType":"bool"}],"stateMutability":"view"},{"type":"function","name":"setDividendDistributor","inputs":[{"name":"_dividendDistributor","type":"address","internalType":"address"}],"outputs":[],"stateMutability":"nonpayable"},{"type":"function","name":"unpause","inputs":[],"outputs":[],"stateMutability":"nonpayable"},{"type":"event","name":"AdminChanged","inputs":[{"name":"newAdmin","type":"address","indexed":true,"internalType":"address"}],"anonymous":false},{"type":"event","name":"ContributionReceived","inputs":[{"name":"member","type":"address","indexed":true,"internalType":"address"}],"anonymous":false},{"type":"event","name":"DividendDistributorUpdated","inputs":[{"name":"newDistributor","type":"address","indexed":true,"internalType":"address"}],"anonymous":false},{"type":"event","name":"DividendsDistributed","inputs":[],"anonymous":false},{"type":"event","name":"EmergencyPaused","inputs":[],"anonymous":false},{"type":"event","name":"EmergencyUnpaused","inputs":[],"anonymous":false},{"type":"event","name":"MemberJoined","inputs":[{"name":"member","type":"address","indexed":true,"internalType":"address"}],"anonymous":false},{"type":"event","name":"MemberLeft","inputs":[{"name":"member","type":"address","indexed":true,"internalType":"address"}],"anonymous":false},{"type":"error","name":"ContractPaused","inputs":[]},{"type":"error","name":"ContributionTooFrequent","inputs":[]},{"type":"error","name":"MinMembershipPeriodNotMet","inputs":[]},{"type":"error","name":"Unauthorized","inputs":[]}],"bytecode":{"object":"0x608060405234801561000f575f5ffd5b50604051610f57380380610f5783398101604081905261002e9161015e565b6001600160a01b0383166100935760405162461bcd60e51b815260206004820152602160248201527f496e76616c6964206578697420636f6e747269627574696f6e206164647265736044820152607360f81b60648201526084015b60405180910390fd5b6001600160a01b0381166100e95760405162461bcd60e51b815260206004820152601a60248201527f496e76616c696420676f7665726e616e63652061646472657373000000000000604482015260640161008a565b600880546001600160a01b03199081166001600160a01b039586161790915560098054821693851693909317909255600a8054909216921691909117905560078054610100600160a81b031916610100330217905561019e565b80516001600160a01b0381168114610159575f5ffd5b919050565b5f5f5f60608486031215610170575f5ffd5b61017984610143565b925061018760208501610143565b915061019560408501610143565b90509250925092565b610dac806101ab5f395ff3fe608060405234801561000f575f5ffd5b5060043610610132575f3560e01c80635c975abb116100b4578063bad3ea6a11610079578063bad3ea6a14610238578063c61d43f41461024b578063daab23da1461025e578063de96a6a714610266578063f19e9d8114610279578063f851a44014610281575f5ffd5b80635c975abb146101ec578063780cf44d1461020957806379ffdd8e146102135780638456cb591461021d5780638f28397014610225575f5ffd5b806332516d48116100fa57806332516d481461017e5780633cb7c5e5146101935780633f4ba83a146101a65780634ec96434146101ae5780635aa6e675146101c1575f5ffd5b806301718f971461013657806311aee38014610151578063163a1fad1461015a57806318e4274d1461016e5780632e3e1ee514610176575b5f5ffd5b61013e600a81565b6040519081526020015b60405180910390f35b61013e60065481565b335f9081526004602052604090205461013e565b61013e610299565b61013e6102e0565b61019161018c366004610c56565b61031e565b005b6101916101a1366004610c83565b610445565b6101916106e7565b61013e6b033b2e3c9fd0803ce800000081565b600a546101d4906001600160a01b031681565b6040516001600160a01b039091168152602001610148565b6007546101f99060ff1681565b6040519015158152602001610148565b61013e62093a8081565b61013e6276a70081565b61019161074a565b610191610233366004610c56565b6107b0565b6009546101d4906001600160a01b031681565b6008546101d4906001600160a01b031681565b61013e600181565b610191610274366004610c83565b61087e565b610191610a88565b6007546101d49061010090046001600160a01b031681565b335f908152600260205260408120b06102cd5760405162461bcd60e51b81526004016102c490610c9a565b60405180910390fd5b50335f908152600160205260409020b090565b335f908152600260205260408120b061030b5760405162461bcd60e51b81526004016102c490610c9a565b50335f908152602081905260409020b090565b60075461010090046001600160a01b0316331461034d576040516282b42960e81b815260040160405180910390fd5b6009546001600160a01b0316156103a65760405162461bcd60e51b815260206004820152601760248201527f4469737472696275746f7220616c72656164792073657400000000000000000060448201526064016102c4565b6001600160a01b0381166103fc5760405162461bcd60e51b815260206004820152601b60248201527f496e76616c6964206469737472696275746f722061646472657373000000000060448201526064016102c4565b600980546001600160a01b0319166001600160a01b0383169081179091556040517f5cd41c4f268c11c5003ab2a9a63d417f5e77055f17bcc5d9607ba1ff4d0d1d25905f90a250565b60075460ff16156104695760405163ab35696f60e01b815260040160405180910390fd5b335f908152600260205260409020b06104945760405162461bcd60e51b81526004016102c490610c9a565b6b033b2e3c9fd0803ce80000008111156104e75760405162461bcd60e51b8152602060048201526014602482015273457869742076616c756520746f6f206c6172676560601b60448201526064016102c4565b335f908152600360205260409020546105049062093a8090610cd4565b4210156105535760405162461bcd60e51b815260206004820152601960248201527f436f6e747269627574696f6e20746f6f206672657175656e740000000000000060448201526064016102c4565b335f908152602081905260408120b060649061056f9084610ced565b6105799190610d04565b335f90815260016020526040812080b0929350839290919061059c908490610cd4565b9250508190b1508060055f8282b06105b49190610cd4565b9091b15050600854604051634100bf9d60e11b8152336004820152602481018390526001600160a01b03909116906382017f3a906044015f604051808303815f87803b158015610602575f5ffd5b505af1158015610614573d5f5f3e3d5ffd5b505060095460065460405163b3b17d0160e01b81523360048201526024810186905260448101919091526001600160a01b03909116925063b3b17d0191506064015f604051808303815f87803b15801561066c575f5ffd5b505af115801561067e573d5f5f3e3d5ffd5b5050335f81815260036020526040808220429055519193507f9ca0de0709c575c61710159cf212e68fa7f9bd8d600cb008ae8c028b7e54b705925090a26040517f1410eda4cb8a65aa23dee7593287857cc4aab930459d0a5cebcaff25a7f7a8c7905f90a15050565b60075461010090046001600160a01b03163314610716576040516282b42960e81b815260040160405180910390fd5b6007805460ff191690556040517f15de7ad89d29fd1c6d2e6b1e878453569b4080edf34e0105faaa3bd52f018530905f90a1565b60075461010090046001600160a01b03163314610779576040516282b42960e81b815260040160405180910390fd5b6007805460ff191660011790556040517f4cb3183d0bf66f9634b15cfc3539fdddc96c2c9324848af89b56586a6739fec4905f90a1565b60075461010090046001600160a01b031633146107df576040516282b42960e81b815260040160405180910390fd5b6001600160a01b03811661082d5760405162461bcd60e51b8152602060048201526015602482015274496e76616c69642061646d696e206164647265737360581b60448201526064016102c4565b60078054610100600160a81b0319166101006001600160a01b038416908102919091179091556040517f7ce7ec0b50378fb6c0186ffb5f48325f6593fcb4ca4386f21861af3129188f5c905f90a250565b60075460ff16156108a25760405163ab35696f60e01b815260040160405180910390fd5b335f908152600260205260409020b0156108f15760405162461bcd60e51b815260206004820152601060248201526f20b63932b0b23c90309036b2b6b132b960811b60448201526064016102c4565b600181101580156109035750600a8111155b61094f5760405162461bcd60e51b815260206004820152601d60248201527f496e76616c696420636f6d6d69746d656e742070657263656e7461676500000060448201526064016102c4565b335f908152602081815260408083208490b160029091528120600190b1600680549161097a83610d23565b9091555050335f8181526004602081815260408084204290819055600390925292839020556009549151637338230b60e11b815290810192909252602482018390526001600160a01b03169063e6704616906044015f604051808303815f87803b1580156109e6575f5ffd5b505af11580156109f8573d5f5f3e3d5ffd5b5050600a5460405163dbf650eb60e01b8152336004820152602481018590526001600160a01b03909116925063dbf650eb91506044015f604051808303815f87803b158015610a45575f5ffd5b505af1158015610a57573d5f5f3e3d5ffd5b50506040513392507f0abf3b3f643594d958297062a019458e27d7766629590ac621aa1000fa1298ab91505f90a250565b60075460ff1615610aac5760405163ab35696f60e01b815260040160405180910390fd5b335f908152600260205260409020b0610ad75760405162461bcd60e51b81526004016102c490610c9a565b335f908152600160205260409020b0610b325760405162461bcd60e51b815260206004820152601e60248201527f4d75737420636f6e74726962757465206265666f7265206c656176696e67000060448201526064016102c4565b335f90815260046020526040902054610b4f906276a70090610cd4565b421015610ba85760405162461bcd60e51b815260206004820152602160248201527f4d696e696d756d206d656d6265727368697020706572696f64206e6f74206d656044820152601d60fa1b60648201526084016102c4565b335f9081526002602052604081208190b16006805491610bc783610d3b565b9091555050600a5460405163dbf650eb60e01b81523360048201525f60248201526001600160a01b039091169063dbf650eb906044015f604051808303815f87803b158015610c14575f5ffd5b505af1158015610c26573d5f5f3e3d5ffd5b50506040513392507fbea911b50ccdd2233b28faa49766c3cbd0631608f32e5a724d7b83b32b681ad091505f90a2565b5f60208284031215610c66575f5ffd5b81356001600160a01b0381168114610c7c575f5ffd5b9392505050565b5f60208284031215610c93575f5ffd5b5035919050565b6020808252600c908201526b2737ba10309036b2b6b132b960a11b604082015260600190565b634e487b7160e01b5f52601160045260245ffd5b80820180821115610ce757610ce7610cc0565b92915050565b8082028115828204841417610ce757610ce7610cc0565b5f82610d1e57634e487b7160e01b5f52601260045260245ffd5b500490565b5f60018201610d3457610d34610cc0565b5060010190565b5f81610d4957610d49610cc0565b505f19019056fea26469706673582212201c22e3d3b8ab809eec61f04fedb5b333813dabafe1663911b418948ec0f441bd64736f6c637828302e382e32382d646576656c6f702e323032352e322e31332b636f6d6d69742e39363462353035320059","linkReferences":{}},"methodIdentifiers":{"MAX_COMMITMENT_PERCENTAGE()":"01718f97","MAX_EXIT_VALUE()":"4ec96434","MIN_COMMITMENT_PERCENTAGE()":"daab23da","MIN_CONTRIBUTION_INTERVAL()":"780cf44d","MIN_MEMBERSHIP_PERIOD()":"79ffdd8e","admin()":"f851a440","changeAdmin(address)":"8f283970","contributeExit(suint256)":"3cb7c5e5","dividendDistributor()":"bad3ea6a","exitContribution()":"c61d43f4","getCommitmentPercentage()":"2e3e1ee5","getMemberJoinTime()":"163a1fad","getTotalContributed()":"18e4274d","governance()":"5aa6e675","joinPool(suint256)":"de96a6a7","leavePool()":"f19e9d81","memberCount()":"11aee380","pause()":"8456cb59","paused()":"5c975abb","setDividendDistributor(address)":"32516d48","unpause()":"3f4ba83a"},"id":23}