{"abi":[{"type":"constructor","inputs":[{"name":"_exitContribution","type":"address","internalType":"address"},{"name":"_dividendDistributor","type":"address","internalType":"address"},{"name":"_governance","type":"address","internalType":"address"}],"stateMutability":"nonpayable"},{"type":"function","name":"JOIN_WINDOW_DURATION","inputs":[],"outputs":[{"name":"","type":"uint256","internalType":"uint256"}],"stateMutability":"view"},{"type":"function","name":"MAX_COMMITMENT_PERCENTAGE","inputs":[],"outputs":[{"name":"","type":"uint256","internalType":"uint256"}],"stateMutability":"view"},{"type":"function","name":"MAX_EXIT_VALUE","inputs":[],"outputs":[{"name":"","type":"uint256","internalType":"uint256"}],"stateMutability":"view"},{"type":"function","name":"MIN_COMMITMENT_PERCENTAGE","inputs":[],"outputs":[{"name":"","type":"uint256","internalType":"uint256"}],"stateMutability":"view"},{"type":"function","name":"MIN_CONTRIBUTION_INTERVAL","inputs":[],"outputs":[{"name":"","type":"uint256","internalType":"uint256"}],"stateMutability":"view"},{"type":"function","name":"MIN_MEMBERSHIP_PERIOD","inputs":[],"outputs":[{"name":"","type":"uint256","internalType":"uint256"}],"stateMutability":"view"},{"type":"function","name":"admin","inputs":[],"outputs":[{"name":"","type":"address","internalType":"address"}],"stateMutability":"view"},{"type":"function","name":"changeAdmin","inputs":[{"name":"newAdmin","type":"address","internalType":"address"}],"outputs":[],"stateMutability":"nonpayable"},{"type":"function","name":"contributeExit","inputs":[{"name":"exitValue","type":"suint256","internalType":"suint256"}],"outputs":[],"stateMutability":"nonpayable"},{"type":"function","name":"dividendDistributor","inputs":[],"outputs":[{"name":"","type":"address","internalType":"contract DividendDistributor"}],"stateMutability":"view"},{"type":"function","name":"exitContribution","inputs":[],"outputs":[{"name":"","type":"address","internalType":"contract ExitContribution"}],"stateMutability":"view"},{"type":"function","name":"getCommitmentPercentage","inputs":[],"outputs":[{"name":"","type":"uint256","internalType":"uint256"}],"stateMutability":"view"},{"type":"function","name":"getMemberJoinTime","inputs":[],"outputs":[{"name":"","type":"uint256","internalType":"uint256"}],"stateMutability":"view"},{"type":"function","name":"getTotalContributed","inputs":[],"outputs":[{"name":"","type":"uint256","internalType":"uint256"}],"stateMutability":"view"},{"type":"function","name":"governance","inputs":[],"outputs":[{"name":"","type":"address","internalType":"contract Governance"}],"stateMutability":"view"},{"type":"function","name":"joinPool","inputs":[{"name":"percentage","type":"suint256","internalType":"suint256"}],"outputs":[],"stateMutability":"nonpayable"},{"type":"function","name":"joinWindowEnds","inputs":[],"outputs":[{"name":"","type":"uint256","internalType":"uint256"}],"stateMutability":"view"},{"type":"function","name":"leavePool","inputs":[],"outputs":[],"stateMutability":"nonpayable"},{"type":"function","name":"memberCount","inputs":[],"outputs":[{"name":"","type":"uint256","internalType":"uint256"}],"stateMutability":"view"},{"type":"function","name":"pause","inputs":[],"outputs":[],"stateMutability":"nonpayable"},{"type":"function","name":"paused","inputs":[],"outputs":[{"name":"","type":"bool","internalType":"bool"}],"stateMutability":"view"},{"type":"function","name":"setDividendDistributor","inputs":[{"name":"_dividendDistributor","type":"address","internalType":"address"}],"outputs":[],"stateMutability":"nonpayable"},{"type":"function","name":"unpause","inputs":[],"outputs":[],"stateMutability":"nonpayable"},{"type":"event","name":"AdminChanged","inputs":[{"name":"newAdmin","type":"address","indexed":true,"internalType":"address"}],"anonymous":false},{"type":"event","name":"ContributionReceived","inputs":[{"name":"member","type":"address","indexed":true,"internalType":"address"}],"anonymous":false},{"type":"event","name":"DividendDistributorUpdated","inputs":[{"name":"newDistributor","type":"address","indexed":true,"internalType":"address"}],"anonymous":false},{"type":"event","name":"DividendsDistributed","inputs":[],"anonymous":false},{"type":"event","name":"EmergencyPaused","inputs":[],"anonymous":false},{"type":"event","name":"EmergencyUnpaused","inputs":[],"anonymous":false},{"type":"event","name":"JoinWindowClosed","inputs":[],"anonymous":false},{"type":"event","name":"MemberJoined","inputs":[{"name":"member","type":"address","indexed":true,"internalType":"address"}],"anonymous":false},{"type":"event","name":"MemberLeft","inputs":[{"name":"member","type":"address","indexed":true,"internalType":"address"}],"anonymous":false},{"type":"error","name":"ContractPaused","inputs":[]},{"type":"error","name":"ContributionTooFrequent","inputs":[]},{"type":"error","name":"JoinWindowExpired","inputs":[]},{"type":"error","name":"JoinWindowStillOpen","inputs":[]},{"type":"error","name":"MinMembershipPeriodNotMet","inputs":[]},{"type":"error","name":"Unauthorized","inputs":[]}],"bytecode":{"object":"0x60a060405234801561000f575f5ffd5b5060405161104838038061104883398101604081905261002e91610172565b6001600160a01b0383166100935760405162461bcd60e51b815260206004820152602160248201527f496e76616c6964206578697420636f6e747269627574696f6e206164647265736044820152607360f81b60648201526084015b60405180910390fd5b6001600160a01b0381166100e95760405162461bcd60e51b815260206004820152601a60248201527f496e76616c696420676f7665726e616e63652061646472657373000000000000604482015260640161008a565b600780546001600160a01b03199081166001600160a01b03868116919091179092556008805482168584161790556009805490911691831691909117905560068054610100600160a81b031916610100330217905561014b62278d00426101b2565b608052506101d7915050565b80516001600160a01b038116811461016d575f5ffd5b919050565b5f5f5f60608486031215610184575f5ffd5b61018d84610157565b925061019b60208501610157565b91506101a960408501610157565b90509250925092565b808201808211156101d157634e487b7160e01b5f52601160045260245ffd5b92915050565b608051610e3d61020b5f395f8181610283015281816104b2015281816108b001528181610aef0152610bbc0152610e3d5ff3fe608060405234801561000f575f5ffd5b5060043610610148575f3560e01c80635fa8e855116100bf578063c61d43f411610079578063c61d43f41461026b578063c8435ec51461027e578063daab23da146102a5578063de96a6a7146102ad578063f19e9d81146102c0578063f851a440146102c8575f5ffd5b80635fa8e8551461021f578063780cf44d1461022957806379ffdd8e146102335780638456cb591461023d5780638f28397014610245578063bad3ea6a14610258575f5ffd5b806332516d481161011057806332516d48146101945780633cb7c5e5146101a95780633f4ba83a146101bc5780634ec96434146101c45780635aa6e675146101d75780635c975abb14610202575f5ffd5b806301718f971461014c57806311aee38014610167578063163a1fad1461017057806318e4274d146101845780632e3e1ee51461018c575b5f5ffd5b610154600a81565b6040519081526020015b60405180910390f35b61015460055481565b335f90815260036020526040902054610154565b6101546102e0565b610154610327565b6101a76101a2366004610ce7565b610365565b005b6101a76101b7366004610d14565b61048c565b6101a76106f3565b6101546b033b2e3c9fd0803ce800000081565b6009546101ea906001600160a01b031681565b6040516001600160a01b03909116815260200161015e565b60065461020f9060ff1681565b604051901515815260200161015e565b61015462278d0081565b61015462093a8081565b6101546276a70081565b6101a7610756565b6101a7610253366004610ce7565b6107bc565b6008546101ea906001600160a01b031681565b6007546101ea906001600160a01b031681565b6101547f000000000000000000000000000000000000000000000000000000000000000081565b610154600181565b6101a76102bb366004610d14565b61088a565b6101a7610ac9565b6006546101ea9061010090046001600160a01b031681565b335f908152600260205260408120b06103145760405162461bcd60e51b815260040161030b90610d2b565b60405180910390fd5b50335f908152600160205260409020b090565b335f908152600260205260408120b06103525760405162461bcd60e51b815260040161030b90610d2b565b50335f908152602081905260409020b090565b60065461010090046001600160a01b03163314610394576040516282b42960e81b815260040160405180910390fd5b6008546001600160a01b0316156103ed5760405162461bcd60e51b815260206004820152601760248201527f4469737472696275746f7220616c726561647920736574000000000000000000604482015260640161030b565b6001600160a01b0381166104435760405162461bcd60e51b815260206004820152601b60248201527f496e76616c6964206469737472696275746f7220616464726573730000000000604482015260640161030b565b600880546001600160a01b0319166001600160a01b0383169081179091556040517f5cd41c4f268c11c5003ab2a9a63d417f5e77055f17bcc5d9607ba1ff4d0d1d25905f90a250565b60065460ff16156104b05760405163ab35696f60e01b815260040160405180910390fd5b7f000000000000000000000000000000000000000000000000000000000000000042116104f057604051632761224f60e11b815260040160405180910390fd5b335f908152600260205260409020b061051b5760405162461bcd60e51b815260040161030b90610d2b565b6b033b2e3c9fd0803ce800000081111561056e5760405162461bcd60e51b8152602060048201526014602482015273457869742076616c756520746f6f206c6172676560601b604482015260640161030b565b335f908152602081905260408120b060649061058a9084610d65565b6105949190610d82565b335f90815260016020526040812080b092935083929091906105b7908490610da1565b9250508190b1508060045f8282b06105cf9190610da1565b9091b15050600754604051634100bf9d60e11b8152336004820152602481018390526001600160a01b03909116906382017f3a906044015f604051808303815f87803b15801561061d575f5ffd5b505af115801561062f573d5f5f3e3d5ffd5b505060085460055460405163b3b17d0160e01b81523360048201526024810186905260448101919091526001600160a01b03909116925063b3b17d0191506064015f604051808303815f87803b158015610687575f5ffd5b505af1158015610699573d5f5f3e3d5ffd5b50506040513392507f9ca0de0709c575c61710159cf212e68fa7f9bd8d600cb008ae8c028b7e54b70591505f90a26040517f1410eda4cb8a65aa23dee7593287857cc4aab930459d0a5cebcaff25a7f7a8c7905f90a15050565b60065461010090046001600160a01b03163314610722576040516282b42960e81b815260040160405180910390fd5b6006805460ff191690556040517f15de7ad89d29fd1c6d2e6b1e878453569b4080edf34e0105faaa3bd52f018530905f90a1565b60065461010090046001600160a01b03163314610785576040516282b42960e81b815260040160405180910390fd5b6006805460ff191660011790556040517f4cb3183d0bf66f9634b15cfc3539fdddc96c2c9324848af89b56586a6739fec4905f90a1565b60065461010090046001600160a01b031633146107eb576040516282b42960e81b815260040160405180910390fd5b6001600160a01b0381166108395760405162461bcd60e51b8152602060048201526015602482015274496e76616c69642061646d696e206164647265737360581b604482015260640161030b565b60068054610100600160a81b0319166101006001600160a01b038416908102919091179091556040517f7ce7ec0b50378fb6c0186ffb5f48325f6593fcb4ca4386f21861af3129188f5c905f90a250565b60065460ff16156108ae5760405163ab35696f60e01b815260040160405180910390fd5b7f00000000000000000000000000000000000000000000000000000000000000004211156108ef5760405163c5db3a4960e01b815260040160405180910390fd5b335f908152600260205260409020b01561093e5760405162461bcd60e51b815260206004820152601060248201526f20b63932b0b23c90309036b2b6b132b960811b604482015260640161030b565b600181101580156109505750600a8111155b61099c5760405162461bcd60e51b815260206004820152601d60248201527f496e76616c696420636f6d6d69746d656e742070657263656e74616765000000604482015260640161030b565b335f908152602081815260408083208490b160029091528120600190b160058054916109c783610db4565b9091555050335f81815260036020526040908190204290556008549051637338230b60e11b81526004810192909252602482018390526001600160a01b03169063e6704616906044015f604051808303815f87803b158015610a27575f5ffd5b505af1158015610a39573d5f5f3e3d5ffd5b505060095460405163dbf650eb60e01b8152336004820152602481018590526001600160a01b03909116925063dbf650eb91506044015f604051808303815f87803b158015610a86575f5ffd5b505af1158015610a98573d5f5f3e3d5ffd5b50506040513392507f0abf3b3f643594d958297062a019458e27d7766629590ac621aa1000fa1298ab91505f90a250565b60065460ff1615610aed5760405163ab35696f60e01b815260040160405180910390fd5b7f00000000000000000000000000000000000000000000000000000000000000004211610b2d57604051632761224f60e11b815260040160405180910390fd5b335f908152600260205260409020b0610b585760405162461bcd60e51b815260040161030b90610d2b565b335f908152600160205260409020b0610bb35760405162461bcd60e51b815260206004820152601e60248201527f4d75737420636f6e74726962757465206265666f7265206c656176696e670000604482015260640161030b565b610be06276a7007f0000000000000000000000000000000000000000000000000000000000000000610da1565b421015610c395760405162461bcd60e51b815260206004820152602160248201527f4d696e696d756d206d656d6265727368697020706572696f64206e6f74206d656044820152601d60fa1b606482015260840161030b565b335f9081526002602052604081208190b16005805491610c5883610dcc565b909155505060095460405163dbf650eb60e01b81523360048201525f60248201526001600160a01b039091169063dbf650eb906044015f604051808303815f87803b158015610ca5575f5ffd5b505af1158015610cb7573d5f5f3e3d5ffd5b50506040513392507fbea911b50ccdd2233b28faa49766c3cbd0631608f32e5a724d7b83b32b681ad091505f90a2565b5f60208284031215610cf7575f5ffd5b81356001600160a01b0381168114610d0d575f5ffd5b9392505050565b5f60208284031215610d24575f5ffd5b5035919050565b6020808252600c908201526b2737ba10309036b2b6b132b960a11b604082015260600190565b634e487b7160e01b5f52601160045260245ffd5b8082028115828204841417610d7c57610d7c610d51565b92915050565b5f82610d9c57634e487b7160e01b5f52601260045260245ffd5b500490565b80820180821115610d7c57610d7c610d51565b5f60018201610dc557610dc5610d51565b5060010190565b5f81610dda57610dda610d51565b505f19019056fea26469706673582212207987906e07a9d50ed53721cd42d8477f63aad050ba87eab35f43c4314ae4bfae64736f6c637828302e382e32382d646576656c6f702e323032352e322e31332b636f6d6d69742e39363462353035320059","linkReferences":{}},"methodIdentifiers":{"JOIN_WINDOW_DURATION()":"5fa8e855","MAX_COMMITMENT_PERCENTAGE()":"01718f97","MAX_EXIT_VALUE()":"4ec96434","MIN_COMMITMENT_PERCENTAGE()":"daab23da","MIN_CONTRIBUTION_INTERVAL()":"780cf44d","MIN_MEMBERSHIP_PERIOD()":"79ffdd8e","admin()":"f851a440","changeAdmin(address)":"8f283970","contributeExit(suint256)":"3cb7c5e5","dividendDistributor()":"bad3ea6a","exitContribution()":"c61d43f4","getCommitmentPercentage()":"2e3e1ee5","getMemberJoinTime()":"163a1fad","getTotalContributed()":"18e4274d","governance()":"5aa6e675","joinPool(suint256)":"de96a6a7","joinWindowEnds()":"c8435ec5","leavePool()":"f19e9d81","memberCount()":"11aee380","pause()":"8456cb59","paused()":"5c975abb","setDividendDistributor(address)":"32516d48","unpause()":"3f4ba83a"},"id":21}