{"abi":[{"type":"constructor","inputs":[{"name":"_exitContribution","type":"address","internalType":"address"},{"name":"_dividendDistributor","type":"address","internalType":"address"}],"stateMutability":"nonpayable"},{"type":"function","name":"MAX_COMMITMENT_PERCENTAGE","inputs":[],"outputs":[{"name":"","type":"uint256","internalType":"uint256"}],"stateMutability":"view"},{"type":"function","name":"MAX_EXIT_VALUE","inputs":[],"outputs":[{"name":"","type":"uint256","internalType":"uint256"}],"stateMutability":"view"},{"type":"function","name":"MIN_COMMITMENT_PERCENTAGE","inputs":[],"outputs":[{"name":"","type":"uint256","internalType":"uint256"}],"stateMutability":"view"},{"type":"function","name":"MIN_CONTRIBUTION_INTERVAL","inputs":[],"outputs":[{"name":"","type":"uint256","internalType":"uint256"}],"stateMutability":"view"},{"type":"function","name":"MIN_MEMBERSHIP_PERIOD","inputs":[],"outputs":[{"name":"","type":"uint256","internalType":"uint256"}],"stateMutability":"view"},{"type":"function","name":"admin","inputs":[],"outputs":[{"name":"","type":"address","internalType":"address"}],"stateMutability":"view"},{"type":"function","name":"changeAdmin","inputs":[{"name":"newAdmin","type":"address","internalType":"address"}],"outputs":[],"stateMutability":"nonpayable"},{"type":"function","name":"contributeExit","inputs":[{"name":"exitValue","type":"suint256","internalType":"suint256"}],"outputs":[],"stateMutability":"payable"},{"type":"function","name":"dividendDistributor","inputs":[],"outputs":[{"name":"","type":"address","internalType":"contract DividendDistributor"}],"stateMutability":"view"},{"type":"function","name":"exitContribution","inputs":[],"outputs":[{"name":"","type":"address","internalType":"contract ExitContribution"}],"stateMutability":"view"},{"type":"function","name":"getCommitmentPercentage","inputs":[],"outputs":[{"name":"","type":"uint256","internalType":"uint256"}],"stateMutability":"view"},{"type":"function","name":"getMemberJoinTime","inputs":[],"outputs":[{"name":"","type":"uint256","internalType":"uint256"}],"stateMutability":"view"},{"type":"function","name":"getTotalContributed","inputs":[],"outputs":[{"name":"","type":"uint256","internalType":"uint256"}],"stateMutability":"view"},{"type":"function","name":"joinPool","inputs":[{"name":"commitmentPercentage","type":"suint256","internalType":"suint256"}],"outputs":[],"stateMutability":"payable"},{"type":"function","name":"leavePool","inputs":[],"outputs":[],"stateMutability":"nonpayable"},{"type":"function","name":"memberCount","inputs":[],"outputs":[{"name":"","type":"uint256","internalType":"uint256"}],"stateMutability":"view"},{"type":"function","name":"pause","inputs":[],"outputs":[],"stateMutability":"nonpayable"},{"type":"function","name":"paused","inputs":[],"outputs":[{"name":"","type":"bool","internalType":"bool"}],"stateMutability":"view"},{"type":"function","name":"setDividendDistributor","inputs":[{"name":"_dividendDistributor","type":"address","internalType":"address"}],"outputs":[],"stateMutability":"nonpayable"},{"type":"function","name":"unpause","inputs":[],"outputs":[],"stateMutability":"nonpayable"},{"type":"event","name":"AdminChanged","inputs":[{"name":"newAdmin","type":"address","indexed":true,"internalType":"address"}],"anonymous":false},{"type":"event","name":"ContributionReceived","inputs":[{"name":"member","type":"address","indexed":true,"internalType":"address"}],"anonymous":false},{"type":"event","name":"DividendDistributorUpdated","inputs":[{"name":"newDistributor","type":"address","indexed":true,"internalType":"address"}],"anonymous":false},{"type":"event","name":"DividendsDistributed","inputs":[],"anonymous":false},{"type":"event","name":"EmergencyPaused","inputs":[],"anonymous":false},{"type":"event","name":"EmergencyUnpaused","inputs":[],"anonymous":false},{"type":"event","name":"MemberJoined","inputs":[{"name":"member","type":"address","indexed":true,"internalType":"address"}],"anonymous":false},{"type":"event","name":"MemberLeft","inputs":[{"name":"member","type":"address","indexed":true,"internalType":"address"}],"anonymous":false},{"type":"error","name":"ContractPaused","inputs":[]},{"type":"error","name":"ContributionTooFrequent","inputs":[]},{"type":"error","name":"MinMembershipPeriodNotMet","inputs":[]},{"type":"error","name":"Unauthorized","inputs":[]}],"bytecode":{"object":"0x608060405234801561000f575f5ffd5b50604051610e1f380380610e1f83398101604081905261002e916100f6565b6001600160a01b0382166100925760405162461bcd60e51b815260206004820152602160248201527f496e76616c6964206578697420636f6e747269627574696f6e206164647265736044820152607360f81b606482015260840160405180910390fd5b600780546001600160a01b03199081166001600160a01b0394851617909155600880549091169190921617905560068054610100600160a81b0319166101003302179055610127565b80516001600160a01b03811681146100f1575f5ffd5b919050565b5f5f60408385031215610107575f5ffd5b610110836100db565b915061011e602084016100db565b90509250929050565b610ceb806101345f395ff3fe60806040526004361061011b575f3560e01c8063780cf44d1161009d578063c61d43f411610062578063c61d43f4146102c9578063daab23da146102e8578063de96a6a7146102fc578063f19e9d811461030f578063f851a44014610323575f5ffd5b8063780cf44d1461023357806379ffdd8e146102495780638456cb591461025f5780638f28397014610273578063bad3ea6a14610292575f5ffd5b806332516d48116100e357806332516d48146101a35780633cb7c5e5146101c45780633f4ba83a146101d75780634ec96434146101eb5780635c975abb1461020a575f5ffd5b806301718f971461011f57806311aee38014610146578063163a1fad1461015b57806318e4274d1461017b5780632e3e1ee51461018f575b5f5ffd5b34801561012a575f5ffd5b50610133600a81565b6040519081526020015b60405180910390f35b348015610151575f5ffd5b5061013360055481565b348015610166575f5ffd5b50335f90815260036020526040902054610133565b348015610186575f5ffd5b50610133610347565b34801561019a575f5ffd5b5061013361038e565b3480156101ae575f5ffd5b506101c26101bd366004610b95565b6103cc565b005b6101c26101d2366004610bc2565b6104f3565b3480156101e2575f5ffd5b506101c261071a565b3480156101f6575f5ffd5b506101336b033b2e3c9fd0803ce800000081565b348015610215575f5ffd5b506006546102239060ff1681565b604051901515815260200161013d565b34801561023e575f5ffd5b5061013362093a8081565b348015610254575f5ffd5b506101336276a70081565b34801561026a575f5ffd5b506101c261077d565b34801561027e575f5ffd5b506101c261028d366004610b95565b6107e3565b34801561029d575f5ffd5b506008546102b1906001600160a01b031681565b6040516001600160a01b03909116815260200161013d565b3480156102d4575f5ffd5b506007546102b1906001600160a01b031681565b3480156102f3575f5ffd5b50610133600181565b6101c261030a366004610bc2565b6108b1565b34801561031a575f5ffd5b506101c2610a25565b34801561032e575f5ffd5b506006546102b19061010090046001600160a01b031681565b335f908152600260205260408120b061037b5760405162461bcd60e51b815260040161037290610bd9565b60405180910390fd5b50335f908152600160205260409020b090565b335f908152600260205260408120b06103b95760405162461bcd60e51b815260040161037290610bd9565b50335f908152602081905260409020b090565b60065461010090046001600160a01b031633146103fb576040516282b42960e81b815260040160405180910390fd5b6008546001600160a01b0316156104545760405162461bcd60e51b815260206004820152601760248201527f4469737472696275746f7220616c7265616479207365740000000000000000006044820152606401610372565b6001600160a01b0381166104aa5760405162461bcd60e51b815260206004820152601b60248201527f496e76616c6964206469737472696275746f72206164647265737300000000006044820152606401610372565b600880546001600160a01b0319166001600160a01b0383169081179091556040517f5cd41c4f268c11c5003ab2a9a63d417f5e77055f17bcc5d9607ba1ff4d0d1d25905f90a250565b60065460ff16156105175760405163ab35696f60e01b815260040160405180910390fd5b335f908152600260205260409020b06105425760405162461bcd60e51b815260040161037290610bd9565b6b033b2e3c9fd0803ce80000008111156105955760405162461bcd60e51b8152602060048201526014602482015273457869742076616c756520746f6f206c6172676560601b6044820152606401610372565b335f908152602081905260408120b06064906105b19084610c13565b6105bb9190610c30565b335f90815260016020526040812080b092935083929091906105de908490610c4f565b9250508190b1508060045f8282b06105f69190610c4f565b9091b15050600754604051634100bf9d60e11b8152336004820152602481018390526001600160a01b03909116906382017f3a906044015f604051808303815f87803b158015610644575f5ffd5b505af1158015610656573d5f5f3e3d5ffd5b505060085460055460405163b3b17d0160e01b81523360048201526024810186905260448101919091526001600160a01b03909116925063b3b17d0191506064015f604051808303815f87803b1580156106ae575f5ffd5b505af11580156106c0573d5f5f3e3d5ffd5b50506040513392507f9ca0de0709c575c61710159cf212e68fa7f9bd8d600cb008ae8c028b7e54b70591505f90a26040517f1410eda4cb8a65aa23dee7593287857cc4aab930459d0a5cebcaff25a7f7a8c7905f90a15050565b60065461010090046001600160a01b03163314610749576040516282b42960e81b815260040160405180910390fd5b6006805460ff191690556040517f15de7ad89d29fd1c6d2e6b1e878453569b4080edf34e0105faaa3bd52f018530905f90a1565b60065461010090046001600160a01b031633146107ac576040516282b42960e81b815260040160405180910390fd5b6006805460ff191660011790556040517f4cb3183d0bf66f9634b15cfc3539fdddc96c2c9324848af89b56586a6739fec4905f90a1565b60065461010090046001600160a01b03163314610812576040516282b42960e81b815260040160405180910390fd5b6001600160a01b0381166108605760405162461bcd60e51b8152602060048201526015602482015274496e76616c69642061646d696e206164647265737360581b6044820152606401610372565b60068054610100600160a81b0319166101006001600160a01b038416908102919091179091556040517f7ce7ec0b50378fb6c0186ffb5f48325f6593fcb4ca4386f21861af3129188f5c905f90a250565b335f908152600260205260409020b0156109005760405162461bcd60e51b815260206004820152601060248201526f20b63932b0b23c90309036b2b6b132b960811b6044820152606401610372565b600181101580156109125750600a8111155b61095e5760405162461bcd60e51b815260206004820152601d60248201527f496e76616c696420636f6d6d69746d656e742070657263656e746167650000006044820152606401610372565b335f908152600260209081526040808320600190b1600382528083204290559082905281208290b1600580549161099483610c62565b9091555050600854604051637338230b60e11b8152336004820152602481018390526001600160a01b039091169063e6704616906044015f604051808303815f87803b1580156109e2575f5ffd5b505af11580156109f4573d5f5f3e3d5ffd5b50506040513392507f0abf3b3f643594d958297062a019458e27d7766629590ac621aa1000fa1298ab91505f90a250565b60065460ff1615610a495760405163ab35696f60e01b815260040160405180910390fd5b335f908152600260205260409020b0610a745760405162461bcd60e51b815260040161037290610bd9565b335f908152600160205260409020b0610acf5760405162461bcd60e51b815260206004820152601e60248201527f4d75737420636f6e74726962757465206265666f7265206c656176696e6700006044820152606401610372565b335f90815260036020526040902054610aec906276a70090610c4f565b421015610b455760405162461bcd60e51b815260206004820152602160248201527f4d696e696d756d206d656d6265727368697020706572696f64206e6f74206d656044820152601d60fa1b6064820152608401610372565b335f9081526002602052604081208190b16005805491610b6483610c7a565b909155505060405133907fbea911b50ccdd2233b28faa49766c3cbd0631608f32e5a724d7b83b32b681ad0905f90a2565b5f60208284031215610ba5575f5ffd5b81356001600160a01b0381168114610bbb575f5ffd5b9392505050565b5f60208284031215610bd2575f5ffd5b5035919050565b6020808252600c908201526b2737ba10309036b2b6b132b960a11b604082015260600190565b634e487b7160e01b5f52601160045260245ffd5b8082028115828204841417610c2a57610c2a610bff565b92915050565b5f82610c4a57634e487b7160e01b5f52601260045260245ffd5b500490565b80820180821115610c2a57610c2a610bff565b5f60018201610c7357610c73610bff565b5060010190565b5f81610c8857610c88610bff565b505f19019056fea2646970667358221220efc1af9de312e9dc48ad13ae03030f5910120296923ae7055cfc48da20f71e6564736f6c637828302e382e32382d646576656c6f702e323032352e322e31332b636f6d6d69742e39363462353035320059","linkReferences":{}},"methodIdentifiers":{"MAX_COMMITMENT_PERCENTAGE()":"01718f97","MAX_EXIT_VALUE()":"4ec96434","MIN_COMMITMENT_PERCENTAGE()":"daab23da","MIN_CONTRIBUTION_INTERVAL()":"780cf44d","MIN_MEMBERSHIP_PERIOD()":"79ffdd8e","admin()":"f851a440","changeAdmin(address)":"8f283970","contributeExit(suint256)":"3cb7c5e5","dividendDistributor()":"bad3ea6a","exitContribution()":"c61d43f4","getCommitmentPercentage()":"2e3e1ee5","getMemberJoinTime()":"163a1fad","getTotalContributed()":"18e4274d","joinPool(suint256)":"de96a6a7","leavePool()":"f19e9d81","memberCount()":"11aee380","pause()":"8456cb59","paused()":"5c975abb","setDividendDistributor(address)":"32516d48","unpause()":"3f4ba83a"},"id":22}