{"abi":[{"type":"constructor","inputs":[],"stateMutability":"nonpayable"},{"type":"function","name":"MAX_PROPOSALS_PER_WINDOW","inputs":[],"outputs":[{"name":"","type":"uint256","internalType":"uint256"}],"stateMutability":"view"},{"type":"function","name":"MIN_PROPOSAL_STAKE","inputs":[],"outputs":[{"name":"","type":"uint256","internalType":"uint256"}],"stateMutability":"view"},{"type":"function","name":"MIN_QUORUM","inputs":[],"outputs":[{"name":"","type":"uint256","internalType":"uint256"}],"stateMutability":"view"},{"type":"function","name":"PROPOSAL_DELAY","inputs":[],"outputs":[{"name":"","type":"uint256","internalType":"uint256"}],"stateMutability":"view"},{"type":"function","name":"PROPOSAL_WINDOW","inputs":[],"outputs":[{"name":"","type":"uint256","internalType":"uint256"}],"stateMutability":"view"},{"type":"function","name":"VOTING_PERIOD","inputs":[],"outputs":[{"name":"","type":"uint256","internalType":"uint256"}],"stateMutability":"view"},{"type":"function","name":"admin","inputs":[],"outputs":[{"name":"","type":"address","internalType":"address"}],"stateMutability":"view"},{"type":"function","name":"castVote","inputs":[{"name":"proposalId","type":"bytes32","internalType":"bytes32"},{"name":"vote","type":"suint256","internalType":"suint256"}],"outputs":[],"stateMutability":"nonpayable"},{"type":"function","name":"changeAdmin","inputs":[{"name":"newAdmin","type":"address","internalType":"address"}],"outputs":[],"stateMutability":"nonpayable"},{"type":"function","name":"createProposal","inputs":[{"name":"proposalId","type":"bytes32","internalType":"bytes32"}],"outputs":[],"stateMutability":"nonpayable"},{"type":"function","name":"executeProposal","inputs":[{"name":"proposalId","type":"bytes32","internalType":"bytes32"}],"outputs":[],"stateMutability":"nonpayable"},{"type":"function","name":"getProposalVotes","inputs":[{"name":"proposalId","type":"bytes32","internalType":"bytes32"}],"outputs":[{"name":"","type":"uint256","internalType":"uint256"}],"stateMutability":"view"},{"type":"function","name":"getVotingPower","inputs":[],"outputs":[{"name":"","type":"uint256","internalType":"uint256"}],"stateMutability":"view"},{"type":"function","name":"lastProposalTimestamp","inputs":[{"name":"","type":"address","internalType":"address"}],"outputs":[{"name":"","type":"uint256","internalType":"uint256"}],"stateMutability":"view"},{"type":"function","name":"pause","inputs":[],"outputs":[],"stateMutability":"nonpayable"},{"type":"function","name":"paused","inputs":[],"outputs":[{"name":"","type":"bool","internalType":"bool"}],"stateMutability":"view"},{"type":"function","name":"proposalCount","inputs":[{"name":"","type":"address","internalType":"address"}],"outputs":[{"name":"","type":"uint256","internalType":"uint256"}],"stateMutability":"view"},{"type":"function","name":"proposalCreator","inputs":[{"name":"","type":"bytes32","internalType":"bytes32"}],"outputs":[{"name":"","type":"address","internalType":"address"}],"stateMutability":"view"},{"type":"function","name":"proposalDeadlines","inputs":[{"name":"","type":"bytes32","internalType":"bytes32"}],"outputs":[{"name":"","type":"uint256","internalType":"uint256"}],"stateMutability":"view"},{"type":"function","name":"proposalExecuted","inputs":[{"name":"","type":"bytes32","internalType":"bytes32"}],"outputs":[{"name":"","type":"bool","internalType":"bool"}],"stateMutability":"view"},{"type":"function","name":"setVotingPower","inputs":[{"name":"member","type":"address","internalType":"address"},{"name":"power","type":"suint256","internalType":"suint256"}],"outputs":[],"stateMutability":"nonpayable"},{"type":"function","name":"totalProposals","inputs":[],"outputs":[{"name":"","type":"uint256","internalType":"uint256"}],"stateMutability":"view"},{"type":"function","name":"unpause","inputs":[],"outputs":[],"stateMutability":"nonpayable"},{"type":"event","name":"AdminChanged","inputs":[{"name":"newAdmin","type":"address","indexed":true,"internalType":"address"}],"anonymous":false},{"type":"event","name":"EmergencyPaused","inputs":[],"anonymous":false},{"type":"event","name":"EmergencyUnpaused","inputs":[],"anonymous":false},{"type":"event","name":"ProposalCreated","inputs":[{"name":"proposalId","type":"bytes32","indexed":true,"internalType":"bytes32"},{"name":"proposer","type":"address","indexed":true,"internalType":"address"}],"anonymous":false},{"type":"event","name":"ProposalExecuted","inputs":[{"name":"proposalId","type":"bytes32","indexed":true,"internalType":"bytes32"}],"anonymous":false},{"type":"event","name":"VoteCast","inputs":[{"name":"proposalId","type":"bytes32","indexed":true,"internalType":"bytes32"},{"name":"voter","type":"address","indexed":true,"internalType":"address"}],"anonymous":false},{"type":"error","name":"ContractPaused","inputs":[]},{"type":"error","name":"InsufficientStake","inputs":[]},{"type":"error","name":"TooManyProposals","inputs":[]},{"type":"error","name":"Unauthorized","inputs":[]}],"bytecode":{"object":"0x6080604052348015600e575f5ffd5b5060098054610100600160a81b0319163361010002179055610c58806100335f395ff3fe608060405234801561000f575f5ffd5b5060043610610147575f3560e01c806372dfe348116100bf578063a966ccbb11610079578063a966ccbb14610289578063b1610d7e1461014b578063bff28ea8146102a8578063dbf650eb146102bb578063e4ea0670146102ce578063f851a4401461030e575f5ffd5b806372dfe348146102205780637ae25f091461023f5780638456cb59146102525780638f2839701461025a578063980ff6c61461026d578063a78d80fc14610280575f5ffd5b80633f4ba83a116101105780633f4ba83a146101e25780635c975abb146101ea5780635f3ad709146101f7578063622e8ea6146101ff5780636a08f229146102075780636e6a626314610211575f5ffd5b8062a184e51461014b578063087f0270146101685780630cf79cde1461017c57806321298310146101ae5780632542bf06146101cd575b5f5ffd5b61015562093a8081565b6040519081526020015b60405180910390f35b335f908152600260205260409020b0610155565b61019e61018a366004610b0a565b60046020525f908152604090205460ff1681565b604051901515815260200161015f565b6101556101bc366004610b0a565b60036020525f908152604090205481565b6101e06101db366004610b0a565b610326565b005b6101e0610546565b60095461019e9060ff1681565b610155603381565b610155600381565b6101556201518081565b610155670de0b6b3a764000081565b61015561022e366004610b3c565b60076020525f908152604090205481565b6101e061024d366004610b5c565b6105a9565b6101e0610793565b6101e0610268366004610b3c565b6107f9565b6101e061027b366004610b0a565b6108c7565b61015560085481565b610155610297366004610b3c565b60066020525f908152604090205481565b6101556102b6366004610b0a565b610a37565b6101e06102c9366004610b7c565b610aa0565b6102f66102dc366004610b0a565b60056020525f90815260409020546001600160a01b031681565b6040516001600160a01b03909116815260200161015f565b6009546102f69061010090046001600160a01b031681565b60095460ff161561034a5760405163ab35696f60e01b815260040160405180910390fd5b5f81815260036020526040902054156103aa5760405162461bcd60e51b815260206004820152601760248201527f50726f706f73616c20616c72656164792065786973747300000000000000000060448201526064015b60405180910390fd5b335f908152600260205260409020b0670de0b6b3a764000011156104055760405162461bcd60e51b8152602060048201526012602482015271496e73756666696369656e74207374616b6560701b60448201526064016103a1565b335f9081526007602052604090205462093a80906104239042610bb8565b1161048057335f9081526006602052604090205460031161047b5760405162461bcd60e51b8152602060048201526012602482015271546f6f206d616e792070726f706f73616c7360701b60448201526064016103a1565b610490565b335f908152600660205260408120555b62093a806104a16201518042610bd1565b6104ab9190610bd1565b5f828152600360209081526040808320939093556005815282822080546001600160a01b031916339081179091558252600690529081208054916104ee83610be4565b9091555050335f908152600760205260408120429055600880549161051283610be4565b9091555050604051339082907fe90bb18a6fc9203e3678a7f41e132910465e0fce1421609662d02c481fbfbcf8905f90a350565b60095461010090046001600160a01b03163314610575576040516282b42960e81b815260040160405180910390fd5b6009805460ff191690556040517f15de7ad89d29fd1c6d2e6b1e878453569b4080edf34e0105faaa3bd52f018530905f90a1565b60095460ff16156105cd5760405163ab35696f60e01b815260040160405180910390fd5b5f82815260036020526040902054421061061f5760405162461bcd60e51b8152602060048201526013602482015272159bdd1a5b99c81c195c9a5bd908195b991959606a1b60448201526064016103a1565b5f8281526003602052604090205461063b9062093a8090610bb8565b42101561067f5760405162461bcd60e51b8152602060048201526012602482015271159bdd1a5b99c81b9bdd081cdd185c9d195960721b60448201526064016103a1565b335f9081526001602090815260408083208584529091529020b0156106d65760405162461bcd60e51b815260206004820152600d60248201526c105b1c9958591e481d9bdd1959609a1b60448201526064016103a1565b335f908152600260205260409020b08111156107295760405162461bcd60e51b81526020600482015260126024820152712b37ba329032bc31b2b2b239903837bbb2b960711b60448201526064016103a1565b5f82815260208190526040812080b0839290610746908490610bd1565b9091b15050335f818152600160208181526040808420878552909152808320919091b15184917faa1c368ec955231333de5b5e0f09d0b2c72d83a2361a709edd03fb3636bd69d791a35050565b60095461010090046001600160a01b031633146107c2576040516282b42960e81b815260040160405180910390fd5b6009805460ff191660011790556040517f4cb3183d0bf66f9634b15cfc3539fdddc96c2c9324848af89b56586a6739fec4905f90a1565b60095461010090046001600160a01b03163314610828576040516282b42960e81b815260040160405180910390fd5b6001600160a01b0381166108765760405162461bcd60e51b8152602060048201526015602482015274496e76616c69642061646d696e206164647265737360581b60448201526064016103a1565b60098054610100600160a81b0319166101006001600160a01b038416908102919091179091556040517f7ce7ec0b50378fb6c0186ffb5f48325f6593fcb4ca4386f21861af3129188f5c905f90a250565b60095460ff16156108eb5760405163ab35696f60e01b815260040160405180910390fd5b5f818152600360205260409020544210156109425760405162461bcd60e51b8152602060048201526017602482015276159bdd1a5b99c81c195c9a5bd9081b9bdd08195b991959604a1b60448201526064016103a1565b5f8181526004602052604090205460ff16156109a05760405162461bcd60e51b815260206004820152601960248201527f50726f706f73616c20616c72656164792065786563757465640000000000000060448201526064016103a1565b5f818152602081905260409020b060338110156109f45760405162461bcd60e51b8152602060048201526012602482015271145d5bdc9d5b481b9bdd081c995858da195960721b60448201526064016103a1565b5f82815260046020526040808220805460ff191660011790555183917f7b1bcf1ccf901a11589afff5504d59fd0a53780eed2a952adade0348985139e091a25050565b5f81815260036020526040812054421015610a8e5760405162461bcd60e51b8152602060048201526017602482015276159bdd1a5b99c81c195c9a5bd9081b9bdd08195b991959604a1b60448201526064016103a1565b505f908152602081905260409020b090565b6001600160a01b038216610aef5760405162461bcd60e51b8152602060048201526016602482015275496e76616c6964206d656d626572206164647265737360501b60448201526064016103a1565b6001600160a01b039091165f908152600260205260409020b1565b5f60208284031215610b1a575f5ffd5b5035919050565b80356001600160a01b0381168114610b37575f5ffd5b919050565b5f60208284031215610b4c575f5ffd5b610b5582610b21565b9392505050565b5f5f60408385031215610b6d575f5ffd5b50508035926020909101359150565b5f5f60408385031215610b8d575f5ffd5b610b9683610b21565b946020939093013593505050565b634e487b7160e01b5f52601160045260245ffd5b81810381811115610bcb57610bcb610ba4565b92915050565b80820180821115610bcb57610bcb610ba4565b5f60018201610bf557610bf5610ba4565b506001019056fea26469706673582212200c457da8fa7b061623c189ced062042e5664c6f0e5a62e1276a85285ac4ece2d64736f6c637828302e382e32382d646576656c6f702e323032352e322e31332b636f6d6d69742e39363462353035320059","linkReferences":{}},"methodIdentifiers":{"MAX_PROPOSALS_PER_WINDOW()":"622e8ea6","MIN_PROPOSAL_STAKE()":"6e6a6263","MIN_QUORUM()":"5f3ad709","PROPOSAL_DELAY()":"6a08f229","PROPOSAL_WINDOW()":"00a184e5","VOTING_PERIOD()":"b1610d7e","admin()":"f851a440","castVote(bytes32,suint256)":"7ae25f09","changeAdmin(address)":"8f283970","createProposal(bytes32)":"2542bf06","executeProposal(bytes32)":"980ff6c6","getProposalVotes(bytes32)":"bff28ea8","getVotingPower()":"087f0270","lastProposalTimestamp(address)":"72dfe348","pause()":"8456cb59","paused()":"5c975abb","proposalCount(address)":"a966ccbb","proposalCreator(bytes32)":"e4ea0670","proposalDeadlines(bytes32)":"21298310","proposalExecuted(bytes32)":"0cf79cde","setVotingPower(address,suint256)":"dbf650eb","totalProposals()":"a78d80fc","unpause()":"3f4ba83a"},"id":22}